:020000040800F2
:100000008C030020CF4900000F4800000F4800007B
:100010000F4800000F4800000F48000000000000DB
:100020000000000000000000000000003D4800004B
:100030003D480000000000003D480000E747000088
:100040003D4800003D4800003D4800003D4800009C
:100050003D4800003D480000654800008D48000014
:10006000B5480000DD480000054900003D4800009B
:100070003D4800003D4800003D4800003D4800006C
:100080003D4800003D4800002B4900003D4800006D
:100090003D4800003D4800003D4800003D4800004C
:1000A0003D4800003D4800003D4800003D4800003C
:1000B000534900007B490000A34900003D4800006F
:1000C0003D4800003D4800003D4800003D4800001C
:1000D0003D4800003D4800003D4800003D4800000C
:1000E0003D4800003D4800003D4800003D480000FC
:1000F0003D4800003D4800003D4800003D480000EC
:100100003D4800003D4800003D4800003D480000DB
:100110003D4800003D4800003D4800003D480000CB
:100120003D4800003D4800003D4800003D480000BB
:100130003D4800003D4800003D4800003D480000AB
:100140003D4800003D4800003D4800003D4800009B
:100150003D4800003D4800003D4800003D4800008B
:100160003D4800003D4800003D4800003D4800007B
:100170003D4800003D4800003D4800003D4800006B
:100180003D4800003D480000C4050000FFFF1E2D53
:100190002D2D204D6563726973702D5374656C6CE1
:1001A0006172697320436F7265202D2D2D0007B594
:1001B0008F48002B09D000F03BF800F041F800F028
:1001C00027F8426028210160F3E707BD00B58848A1
:1001D00000230168282905D1426800F004F800F0E6
:1001E0004CF8F6E700BD03B547F8046D160047F874
:1001F000046D1E0008B400F0B5FF08BC013347F8D9
:10020000046D7C4E47F8046D7B4E04F030F903BD5D
:1002100003B5013B47F8046D1E0008B400F08CFFE5
:1002200008BC320047F8046D744E04F020F903BD99
:1002300003B5734801681E2901D000F034F803BDEE
:100240008169016201698161816801610168816080
:10025000C16941624169C161C16841614168C16070
:100260001E21016070470FB5614801681E2903D047
:10027000FFF7DEFFFFF7E4FF0FBD02B58168016005
:10028000C168416000E002B5016981604169C160F7
:1002900081690161C1694161016A8161416AC1612C
:1002A0001E21016202BD08B501681E2202600829F4
:1002B00001D20B0004E0282909D1436800F05BF863
:1002C00047F8046D4F4E56EA033602F0ADFF08BD05
:1002D00000B500F009F800F00CF800F00FF800F09D
:1002E00012F800F015F800BD0FB54548FFF7DBFF29
:1002F0000FBD0FB54448FFF7D6FF0FBD0FB54348FC
:10030000FFF7D1FF0FBD0FB54148FFF7CCFF0FBD81
:100310000FB537480168062202601E2906D147F84A
:10032000046D4CF6407602F050FF15E0282909D103
:10033000436847F8046D1E0047F8046D062602F076
:1003400015FC09E0062907D047F8046D44F206665B
:10035000C9000E4302F039FF00F001F80FBD244838
:100360001E210162816101618160C162062101601B
:1003700000218162704707B547F8046D1E0000F048
:1003800049F847F8046D1E0002F0F0FB07BD07B501
:10039000C16A282904D1016B994201D1002307BD0C
:1003A0000168002918D08168002915D00169002949
:1003B00012D0816900290FD0016A00290CD0036393
:1003C00047F8046D1E0047F8046D002602F0CEFBCE
:1003D0002821C162002307BD47F8046D1E0000F00C
:1003E00019F847F8046D1E0002F0C0FB07BD0000BD
:1003F00028000020EC0E0000610200000020000038
:1004000048000020040D47F840000020380000207C
:100410003000002037B53648016882680369846976
:10042000056A062000F00EF8032000F00BF8022009
:1004300000F008F8012000F005F800232C481E21E8
:10044000C16237BD814209D0824207D0834205D0C4
:10045000844203D0854201D0030037BD704747F87E
:10046000046D4CF6007600B581581E2905D1FFF7C2
:10047000D1FF8350012199400E4300BD00B50168B2
:100480001E2904D10022FFF7EAFF02F09EFE00BD04
:1004900000B581681E2907D10822FFF7E0FF00227E
:1004A000FFF7E1FF02F091FE00BD00B501691E29D2
:1004B0000AD11022FFF7D3FF0822FFF7D4FF002252
:1004C000FFF7D1FF02F081FE00BD00B581691E2952
:1004D0000DD11822FFF7C3FF1022FFF7C4FF082237
:1004E000FFF7C1FF0022FFF7BEFF02F06EFE00BD66
:1004F0002800002000B50168282904D14368FFF7CF
:100500003AFF0360190000BD00B58168282904D1B5
:10051000C368FFF730FF8360190000BD00B50169B3
:10052000282904D14369FFF726FF0361190000BDA4
:100530003EB5826803698469056A9A4203D0A24283
:1005400001D0AA420AD1072A08D847F8046DD6007C
:10055000FFF760FF1E43836002F037FE3EBD3EB5ED
:100560000168826803698469056A914206D09942EC
:1005700004D0A14202D0A94200D03EBD47F8046D8C
:10058000CE00FFF747FF1E43036002F01EFE3EBD94
:1005900000B5FFF772FEFFF766FEFFF73BFF036053
:1005A00000BD01B506480368013308D00023DB43D2
:1005B000036047F8046D4BF2005602F006FE01BDE1
:1005C000D89F0020E80500004202043264757000E4
:1005D000386847F8046D043F3860704700B500F094
:1005E000D7FC00F0D5FC00BD060600006202053213
:1005F00064726F70043740CF704700B500F078FC2C
:1006000000F076FC00BD4C06000044020532737712
:10061000617007CF043F386047F8046D043F3A60CB
:100620000E00704700B5FFF750FF026803690360D2
:100630000261426843694360426182688369836002
:100640008261C268C369C360C26100BD74060000F4
:10065000620204326E69700007CF043F3860704751
:1006600000B5FFF732FFFFF7DDFFFFF706FEFFF7EC
:1006700004FE00BD8E060000440005326F766572F0
:10068000B86847F8046D043F3860FE687047B206EA
:100690000000440005327475636B07CF043F386077
:1006A00047F8046D043F3A60043F3960043F386006
:1006B0007047D406000046000432726F7400386838
:1006C000B9683A69B86039613A6079687E60FE68F5
:1006D000F9607047F6060000460005322D726F740F
:1006E0003868B9683A6938613960BA60F968FE609B
:1006F0007E68796070471E070000200203323E7258
:1007000001CF01B440B440CF704700B5FFF749FFB7
:1007100000F011FC00F0B1FC00F0AFFC00BD4A0796
:10072000000020020332723E47F8046D40BC01BC59
:10073000043F3860704700B5FFF733FF00F0B9FCA5
:1007400000F0B7FC00F0F7FB00BD7A0700002002C4
:100750000332724047F8046D019E47F8046D009E15
:10076000704700B5FFF71DFF47F8046D49F6010615
:1007700003F037FA03F031FA00BDA00700002002B1
:1007800006327264726F700002B0704700B5FFF7F6
:1007900008FF47F8046D4BF2020602F016FD00BD9B
:1007A000B807000042000364322F3868F107761062
:1007B0004008084338607047CE07000062020364B7
:1007C000322A3868001876413860704717E0E80729
:1007D000000042000464736872003868F10776080C
:1007E000400808433860704734080000620204641F
:1007F00073686C003868001876413860704700B53F
:10080000FFF746FEFFF776FEFFF7A9FE00F093FB29
:10081000FFF770FEFFF7A3FE47F8046D402601F0D6
:100820006DFC00F088FB47F8046D44F2401601F0BF
:1008300065FC00BD4608000042000464616273006C
:10084000002E07D4704764080000420007646E65FC
:100850006761746538680021C043F64301304E413A
:1008600038607047B4080000640202642D0007CFAE
:10087000121AB1410E00043F3A60704700B5FFF70D
:1008800024FE00F0ADFBFFF735FEFFF768FE00F039
:1008900052FBFFF72FFEFFF762FEFFF7C3FE01F0EA
:1008A00097FB00F0B9FB47F8046D44F2801600F0A6
:1008B00045FD00BD02090000640202642B0007CF61
:1008C00012184E41043F3A60704700B5FFF7FDFD36
:1008D00000F086FBFFF70EFEFFF741FE00F02BFB5A
:1008E000FFF708FEFFF73BFEFFF79CFE01F055FB0C
:1008F00000F092FB47F8046D44F2401600F022FD30
:1009000000BD2C090000610203733E6447F8046DCA
:10091000F617704700B500F0D9FAFFF720FE47F848
:10092000046D41F2C07601F0E9FB00BD8A090000C8
:10093000620203756D2A3868A0FB060638607047AE
:1009400047F8046DDFF8286500B5FFF7A1FDFFF754
:10095000D1FDFFF7D9FD01680E43816856EA0146D3
:10096000FFF78BFCFFF789FCFFF77DFCFFF752FDDB
:10097000036056EA0336FFF776FCFFF74BFD036092
:1009800056EA032602F050FC00BDA80900006202EE
:10099000026D2A00386880FB06063860704747F809
:1009A000046DDFF8D064CFE7E6090000440003756A
:1009B000642A07CF564341437618010C130C594360
:1009C0007618010C80B292B2514343435043002247
:1009D000C91852411204B6180A04090C80184E4175
:1009E000043F38607047780A000044000475646D65
:1009F0002A0010B5002447F8046D7E6847F8046D9E
:100A00003E69FFF798FF310040CF300040CF47F8F4
:100A1000046D3E6847F8046DFE6803B4FFF78BFF72
:100A200003BC330040CF320040CF47F8046D3E682E
:100A300047F8046D3E690FB4FFF77DFF0FBC9219B4
:100A4000634140CF89196241634140CF47F8046D4B
:100A50007E6847F8046DFE680FB4FFF76CFF0FBCAB
:100A60009219634140CF89196241634140CF1E0012
:100A70003A607960B86010BD9A0A00004300022A0B
:100A80002F0000B540B440CFFFF784FF47F8046D56
:100A900040BC00F04CF8043700BDBC0A0000430025
:100AA000052A2F6D6F6400B540B440CFFFF772FF89
:100AB00047F8046D40BC00F03AF800BDDE0A0000C3
:100AC000430003752A2F00B540B440CFFFF733FF32
:100AD00047F8046D40BC00F01BF8043700BD020B62
:100AE0000000430006752A2F6D6F640000B540B406
:100AF00040CFFFF720FF47F8046D40BC00F008F836
:100B000000BD220B0000430006756D2F6D6F640061
:100B100000B547F8046D002600F019F840CF0437FF
:100B200000BD400B00004300056D2F6D6F6400B5E4
:100B300047F8046DF61700F032F840CF043700BDD7
:100B4000920B000044000675642F6D6F640030B492
:100B5000002300227968B86835003C6840264000D0
:100B6000494152415B41AB4202D804D3A24202D375
:100B7000121BAB410130013EF1D10E0038607B60A9
:100B8000BA6030BC704730B400237A68B96800207E
:100B9000E2E7080C0000440005642F6D6F6400B5A7
:100BA000F01719D0FFF756FEFFF733FDF0170CD002
:100BB000FFF750FEFFF72DFDFFF7C9FFFFF729FDF7
:100BC000FFF748FEFFF725FD00BDFFF722FDFFF709
:100BD000BEFFFFF73FFE00BDFFF71BFDF0170ED075
:100BE000FFF738FEFFF715FDFFF7B1FFFFF732FE05
:100BF000FFF70FFDFFF72EFEFFF70BFD00BDFFF720
:100C000008FDFFF7A4FF00BD1E0C000044000264B5
:100C10002F0000B5FFF7C3FFFFF71EFD00BD660CF8
:100C20000000440002662A0000B5F0170DD0FFF75F
:100C300011FEFFF7EEFCF0170DD0FFF70BFEFFF7EC
:100C4000D8FE40CF01CF386000BDFFF7E2FCF017BF
:100C5000F5D0FFF7FFFDFFF7CCFE40CF01CF3860A6
:100C6000FFF7F8FD00BDB20C0000440002662F0043
:100C700000B5F0170ED0FFF7EDFDFFF7CAFCF01737
:100C80000ED0FFF7E7FDFFF7C4FCFFF77CFFFFF78F
:100C9000E3FC00BDFFF7BDFCF017F4D0FFF7DAFD71
:100CA000FFF7B7FCFFF76FFFFFF7D4FDFFF7D4FCAA
:100CB00000BDFA0C000020020232210006CF316094
:100CC000726040CF704700B5FFF7EFFB01684268E4
:100CD00006B400F006FEFFF7C6FA06BC016028293C
:100CE00006D047F8046D46F2400600F0FEFD00BD58
:100CF0000432426000F0F5FD00BD440D000020020A
:100D000002324000043F706838603668704700B5B2
:100D100000F0DCF8016828290AD047F8046D46F68F
:100D2000400600F0BFFD00F006F900F0B7FD00BD81
:100D300041680431416000F0B1FD00F0FCF800F0C2
:100D4000ADFD00BD640D000044000364753C07CF99
:100D50008E4204D801D1904201D800267047002667
:100D6000F6437047840D000044000364753E07CFCE
:100D7000B14204D801D1824201D800267047002632
:100D8000F6437047A40D0000440002643C0007CF06
:100D90008E4204DC01D1904201DC0026704700261F
:100DA000F6437047C40D0000440002643E0007CFC4
:100DB000B14204DC01D1824201DC002670470026EA
:100DC000F6437047E00D000062020364303C0437D4
:100DD000F617704700B500F0C1F800F03DFB00BD0C
:100DE000080E000062020364303D01CF0643013E5D
:100DF000B641704700B547F8046D44F2003600F084
:100E0000A1FA00F005FB00BD2E0E000044020364B1
:100E10003C3E07CF50404E400643013EB641F643AC
:100E2000704700B500F015F800F005FB00BD780E26
:100E30000000440202643D0007CF50404E4006438C
:100E4000013EB641704700B500F003F800F0E0FA4B
:100E500000BD00B5FFF739FB00F0C2F800F0C4F99F
:100E600000F0DAF800F0C0F900F0B1F900BD0000C0
:100E70000000A0FB000080FB8A0E0000200003732E
:100E8000704047F8046D3E0070479A0E0000200045
:100E900003737021370040CF7047AC0E0000200074
:100EA0000372704047F8046D6E467047BC0E000038
:100EB000200003727021B54640CF7047E00E00005D
:100EC00061020364757047F8046D704706B5FFF75B
:100ED000D5FA01684268FFF7C6F90160426006BDB5
:100EE0000C0F000061020464726F700040CF704705
:100EF00000B501681E2906D147F8046D43F2047657
:100F000002F063F900BDFFF7B8F900BD220F000041
:100F10006100043F64757000002E01D047F8046D35
:100F200070474E0F000062020473776170003968E9
:100F30003E600E0070470CB5FFF7AAFA026883689E
:100F4000036082604268C3684360C2600CBD7C0F6E
:100F500000006202036E69700437704700B5FFF746
:100F60008DFA81681E2902D0FFF78DF900BD47F880
:100F7000046D43F2047602F028F900BDA40F0000CE
:100F80006202046F7665720047F8046D7E687047F0
:100F900000B5FFF77DFA8168C268FFF764F9016068
:100FA000426000BDCA0F00006202047475636B00EA
:100FB00001CF083F7E603860704700B5FFF768FAE0
:100FC000FFF784FF00F028F800BD00100000630266
:100FD00003726F7403CF083F78603E600E00704765
:100FE0000EB5FFF762FA01688268036981600261E9
:100FF00003604168C2684369C160426143600EBDDD
:10100000241000006302042D726F740003CF083FA8
:101010007E6039600600704700B5FFF7E1FFFFF71B
:10102000DFFF00BD361000002000047069636B0014
:1010300057F8266070474E10000000000564657088
:1010400074684F49C91B47F8046D8E0870476A10D1
:1010500000000000067264657074680047F8046D53
:101060006E464849891B8E087047A0100000200278
:10107000023E720040B440CF704700B5FFF791FACE
:10108000FFF7FCF9FFF736FA47F8046D4BF200461C
:1010900001228A40164302F098F8FFF7EEF800BDEF
:1010A000D6100000200202723E0047F8046D40BCDA
:1010B000704700B5FFF775FAFFF7D5F8FFF7AAF903
:1010C000036047F8046D4BF6004601229A40164330
:1010D00002F07BF800BDF410000020020272400014
:1010E00047F8046D009E704700B5FFF75AFA02F00A
:1010F00074FD00BD181100002002057264726F704B
:1011000001B0704700B5FFF74CFA47F8046D4BF299
:10111000010602F05AF800BD2C11000020000572F3
:101120007069636BB6006E443668704758110000F2
:10113000000004726F6C6C00002E01D140CF70472C
:10114000B0003958C019031F1A6802600438013E04
:10115000F9D104370E007047881100000000052DFA
:10116000726F6C6C002E01D140CF704738683946E1
:101170004A680A600431013EFAD1086040CF7047E6
:101180008C0200208C030020A21100006202036187
:101190006E6401CF0640704747F8046D44F20006C4
:1011A000D0E0BE11000062020362696301CFB04368
:1011B0000600704747F8046D44F28036BEE0D8114F
:1011C00000006202026F720001CF0643704747F8C9
:1011D000046D44F20036B5E0F211000062020378BB
:1011E0006F7201CF4640704747F8046D44F24006E5
:1011F000A8E00A1200006202012A01CF46437047AC
:1012000047F8046D44F240369CE03E120000610253
:1012100003636C7AB6FA86F6704700B5FFF72EF9CD
:1012200047F8046D6F4EFFF765F90E4356EA014625
:10123000FFF7AEF956EA032601F0F6FF00BD4E12A5
:101240000000610003726F725FEA760670476012F9
:101250000000610003726F6CB61956F1000670470A
:10126000981200006202076172736869667401CFA8
:1012700030410600704700B547F8046D44F200168F
:1012800047F8046D41F20006FFF702F941681F2993
:101290002AD91F21416027E0C212000062020672B3
:1012A00073686966740001CFF0400600704700B5AE
:1012B00047F8046D44F2C00647F8046D40F6000696
:1012C00012E0001400006202066C73686966740024
:1012D00001CFB0400600704700B547F8046D44F2F6
:1012E000800647F8046D0026FFF7D2F80168282928
:1012F00003D040CF00F022F800BD04374168FEF76C
:10130000BCFF002901D140CF00BD1F290AD88901A7
:101310000E430268D2001643FFF73AF91E4301F06C
:1013200054FF00BD40CFFFF733F947F8046D42F298
:1013300000061B021E4301F048FF00BD0FB5FFF77A
:10134000A7F80CE00FB5FFF7A3F80168062901D153
:10135000FFF7F1FD8268282A01D1FFF7ECFDFFF7C6
:10136000D3F8016828291CD147F8046D466801F0BC
:1013700049FB02CF002E40CF13D0B6F5804F01D1EC
:10138000194E1CE0194A964201D1194E17E0B6F5E4
:10139000864F01D1174E12E0174A964201D1174EDF
:1013A0000DE0FFF7C5F8FFF7A5F8C90082680E4306
:1013B000164301F00AFFFEF760FF0FBD0FB50E43A5
:1013C000816856EA0146FEF758FFFEF756FFFEF722
:1013D0004AFFFFF71FF8036056EA032601F024FFD7
:1013E0000FBD000080F0B0FA000010F04040000097
:1013F000000090F0000050F080430000000030F04A
:1014000024140000610202303D00013EB6417047E5
:1014100000B500F0FDF800F02EFEFEF72EFF794932
:10142000816200BD4A140000610203303C3E013E6F
:10143000B641F643704700B500F0EAF800F01BFE35
:10144000FEF71BFF7049816200BD7014000061024D
:1014500002303C00F617704700B500F0D9F847F8A5
:10146000046D41F2C07600F049FE6849816200BD1A
:1014700086140000600004747275650047F8046DFE
:101480000026F64370479A14000060000566616C00
:10149000736547F8046D00267047C01400004202CF
:1014A000023E3D0001CFB042EADA0026704747F81D
:1014B000046D4DF6003647F8046D4DF60026B3E096
:1014C000E61400004202023C3D0001CFB042D7DDED
:1014D0000026704747F8046D4DF6004647F8046D46
:1014E0004DF60056A0E00A1500004202013C01CF73
:1014F000B042C5DB0026704747F8046D4DF6002664
:1015000047F8046D4DF600368EE02E1500004202BD
:10151000013E01CFB042B3DC0026704747F8046DAE
:101520004DF6005647F8046D4DF600467CE0541524
:101530000000620203753E3D01CF861BB641F643B3
:10154000704747F8046D4DF2003647F8046D4DF2D0
:10155000002669E07A150000620203753C3D01CF68
:10156000361AB641F643704747F8046D4DF600064B
:1015700047F8046D4DF6001656E09E150000620215
:1015800002753C0001CF861BB641704747F8046DD9
:101590004DF2002647F8046D4DF2003644E0C215C6
:1015A0000000620202753E0001CF361AB641704754
:1015B00047F8046D4DF6001647F8046D4DF6000629
:1015C00032E0E41500006202023C3E0001CF811BC4
:1015D000361A0E43704747F8046D4DF2000647F87F
:1015E000046D21E04C1700006202013D01CF361A64
:1015F000013EB641704747F8046D4DF2001647F8BA
:10160000046D11E000D2000000D3000000D50000FE
:1016100000B5FEF733FFFEF767FEFEF76AFEFEF742
:101620006DFEFEF771FF00BD00B5FEF731FFFEF75E
:101630005BFEFEF75EFEFEF771FF8268282A04D18A
:10164000FFF779FC39683E600E4640CF01682829D3
:101650001DD14168FF2907D847F8046D42F60006FE
:101660000E43816809021AE047F8046D466801F0EC
:10167000C9F902CF002E40CF09D047F8046D694E5A
:101680000E43816856EA014601F0CEFD0AE0FEF7FE
:1016900031FF47F8046D44F28026C90016430E431B
:1016A00001F093FDFEF7E9FDFEF7E7FD866240CF0E
:1016B00000BD0FB55C48816A002933D047F8046D3E
:1016C000866A00218162310AD52901D140CF0FBD40
:1016D000FEF7C9FDFEF79EFE0360D22903D1534EEB
:1016E00000F00CFD0FBDD32905D1504E00F006FDD2
:1016F00000F017FD0FBD023601F067FD47F8046DDD
:1017000042F2000600F00FF800F00BFD47F8046D00
:101710004EF2000601F059FD47F8046D42F2000652
:1017200000F001F80FBD00B5FEF7A8FEFEF717FFA9
:10173000016809020E4301F048FD00BD00B5816A51
:10174000090AD52901D1FEF798FD00BD6A170000EE
:101750006202036D696E01CFB04200DC0600704783
:1017600047F8046D4DF600362DE088170000620240
:10177000036D617801CFB04200DB0600704747F887
:10178000046D4DF600461EE0A817000062020475C5
:101790006D61780001CFB04200D30600704747F872
:1017A000046D4DF600060EE030180000620204756C
:1017B0006D696E0001CFB04200D80600704747F84F
:1017C000046D4DF2003600B5FEF762FE01688268D6
:1017D000914203D140CFFEF756FD00BD062A01D14C
:1017E000FFF7A9FB0168282901D1FFF7A4FBFEF749
:1017F000B6FEFEF789FEC900026847F8046D44F2A0
:1018000080260E43164301F0E0FC01F0DEFC47F8B1
:10181000046D44F200660E43164301F0D6FCFEF759
:1018200032FD00BD000FB0F1280000208041000013
:101830006E1800000000046D6F76650007B531007A
:1018400040CF320040CF00290FD0B2420DD006D396
:10185000013E013A705C50540139FBD105E030780B
:101860001070013601320139F9D140CF07BD90180F
:10187000000000000466696C6C00300040CF31004D
:1018800040CF002902D001397054FCD140CF7047BD
:10189000D2180000200201403668704747F8046DF6
:1018A00046F6000600B5FEF7E9FD0368282B08D1CF
:1018B00043687C21194009010E437C218B43FEF7CC
:1018C00066FDDB001E43FEF763FE1E4301F07DFC58
:1018D00000BD2A1900002002012103CF30600E0054
:1018E000704747F8046D46F2000600B5FEF7D0FDDC
:1018F0000368282B09D143687C21194009010E4354
:101900007C218B43FEF743FD0360DB001E438368AD
:10191000282B02D1C368FEF72EFD1E4301F055FCB3
:10192000FEF7ABFCFEF7A9FC00BD60190000200229
:10193000022B210003CF3268121832600E0070476C
:1019400000B5FEF7A5FDFFF7C1FAFFF7A7FFFFF708
:1019500047FB00F022FBFFF7EEFAFFF7C2FF00BDE6
:10196000A41900002002026840003688704700B5C4
:10197000FEF784FD47F8046D48F600060368282B3F
:1019800008D143683E21194049010E433E218B4353
:10199000FEF7FDFCDB001E43FEF7FAFD1E4301F0DF
:1019A00014FC00BDFE19000020020268210003CFD4
:1019B00030800E00704700B5FEF76AFD47F8046DF1
:1019C00048F200060368282B09D143683E211940DC
:1019D00049010E433E218B43FEF7D9FC0360DB0037
:1019E0001E438368282B02D1C368FEF7C4FC1E4344
:1019F00001F0EBFBFEF741FCFEF73FFC00BD341AA3
:101A00000000200203682B2103CF32881218328095
:101A10000E00704700B5FEF73BFDFFF757FAFFF7E2
:101A2000A6FFFFF7DDFA00F0B8FAFFF784FAFFF738
:101A3000C2FF00BD781A0000200202634000367821
:101A4000704700B5FEF71AFD47F8046D47F600062B
:101A50000368282B08D143681F21194089010E43D0
:101A60001F218B43FEF793FCDB001E43FEF790FD26
:101A70001E4301F0AAFB00BDD21A0000200202633F
:101A8000210003CF30700E00704700B5FEF700FD57
:101A900047F8046D47F200060368282B09D1436814
:101AA0001F21194089010E431F218B43FEF76FFC54
:101AB0000360DB001E438368282B02D1C368FEF756
:101AC0005AFC1E4301F081FBFEF7D7FBFEF7D5FB66
:101AD00000BD081B0000200203632B2103CF3278D6
:101AE000121832700E00704700B5FEF7D1FCFFF7F8
:101AF000EDF9FFF7A6FFFFF773FA00F04EFAFFF7D4
:101B00001AFAFFF7C2FF00BD481B00002002046262
:101B10006973210003CF3268024332600E007047C0
:101B200000B5FEF7B5FCFFF7D1F9FFF7B7FEFFF7F9
:101B300057FA47F8046D44F20036FFF703FCFFF74D
:101B4000FAF9FFF7CEFE00BD881B000020020462F8
:101B50006963210003CF3268824332600E00704710
:101B600000B5FEF795FCFFF7B1F9FFF797FEFFF719
:101B700037FA47F8046D44F28036FFF7DFFBFFF7D2
:101B8000DAF9FFF7AEFE00BDC81B000020020478A2
:101B90006F72210003CF3268424032600E007047FE
:101BA00000B5FEF775FCFFF791F9FFF777FEFFF739
:101BB00017FA47F8046D44F24006FFF7C3FBFFF73E
:101BC000BAF9FFF78EFE00BDFE1B00002002046282
:101BD0006974400001CF3668064018BF4FF0FF36E9
:101BE000704700B5FEF754FCFFF758FE47F8046D48
:101BF00044F20006FFF7A6FBFFF71DFC00BD3E1CEC
:101C00000000200205686269732103CF3288024315
:101C100032800E00704700B5FEF73AFCFFF756F928
:101C2000FFF7A5FEFFF7DCF947F8046D44F2003634
:101C3000FFF788FBFFF77FF9FFF7BDFE00BD7E1CB5
:101C40000000200205686269632103CF3288824365
:101C500032800E00704700B5FEF71AFCFFF736F928
:101C6000FFF785FEFFF7BCF947F8046D44F28036B4
:101C7000FFF764FBFFF75FF9FFF79DFE00BDBE1C99
:101C8000000020020568786F722103CF328842403D
:101C900032800E00704700B5FEF7FAFBFFF716F929
:101CA000FFF765FEFFF79CF947F8046D44F2400624
:101CB000FFF748FBFFF73FF9FFF77DFE00BDF41C7F
:101CC0000000200205686269744001CF3688064032
:101CD00018BF4FF0FF36704700B5FEF7D9FBFFF78E
:101CE00046FE47F8046D44F20006FFF72BFBFFF7B2
:101CF000A2FB00BD341D0000200205636269732150
:101D000003CF3278024332700E00704700B5FEF701
:101D1000BFFBFFF7DBF8FFF794FEFFF761F947F829
:101D2000046D44F20036FFF70DFBFFF704F9FFF7EF
:101D3000ACFE00BD741D00002002056362696321D2
:101D400003CF3278824332700E00704700B5FEF741
:101D50009FFBFFF7BBF8FFF774FEFFF741F947F869
:101D6000046D44F28036FFF7E9FAFFF7E4F8FFF775
:101D70008CFE00BDB41D000020020563786F722147
:101D800003CF3278424032700E00704700B5FEF744
:101D90007FFBFFF79BF8FFF754FEFFF721F947F8A9
:101DA000046D44F24006FFF7CDFAFFF7C4F8FFF7E1
:101DB0006CFE00BDEA1D00002002056362697440EC
:101DC00001CF3678064018BF4FF0FF36704700B598
:101DD000FEF75EFBFFF735FE47F8046D44F20006A0
:101DE000FFF7B0FAFFF727FB00BD7E1E00000000E2
:101DF0000768666C61736821300040CF310040CFC6
:101E0000584B984221D3584B98421ED2574B1940F9
:101E1000994219D001220240002A16D102889A4222
:101E200013D1534A8018534A534B1360534B1360DA
:101E3000534A012313600180524A1368012018405D
:101E4000FBD14F4A80231360704700F096FC2A575D
:101E5000726F6E672061646472657373206F7220A5
:101E60006461746120666F722077726974696E674D
:101E700020666C61736820210A0002F008BCCC1E49
:101E8000000000000E666C617368706167656572C2
:101E9000617365000FB5300040CF324B984214D3C8
:101EA000344A354B1360354B1360354A02231360B7
:101EB000354A1060324A42231360324A13680120C7
:101EC0001840FBD12E4A802313600FBD481F00002D
:101ED00000000A6572617365666C61736800214871
:101EE00072B62149214A038893421CD047F8046DF9
:101EF000060047F8046D00F040FC10457261736500
:101F000020626C6F636B20617420200000F0A8FCDD
:101F100000F033FC0C2066726F6D20466C617368B4
:101F20000A00FFF7B7FF02308842DCD100F025FC41
:101F30001246696E69736865642E20526573657414
:101F400020210A0002F03DFC8C1F000000000E65FD
:101F500072617365666C61736866726F6D003000E4
:101F600040CFBDE70050000000000400FFFF00006C
:101F7000000000080420024023016745AB89EFCD33
:101F8000102002400C20024014200240C21F00001A
:101F90006202012B01CF3618704700B5FEF778FAC0
:101FA00047F8046D43F2000647F8046DC84E47F841
:101FB000046D41F600068168282917D1FEF7BBFFA2
:101FC00014E0682000006202012D01CF861B7047DB
:101FD00000B5FEF75DFA47F8046D43F6000647F8D2
:101FE000046DBC4E47F8046D41F60026FEF78CFAEE
:101FF0000168282927D14168FF290CD840CF40CF5C
:10200000FEF796FA0E43816809020E4301F0DDF8EF
:10201000FEF733F900BD47F8046D0E0000F0F2FC46
:1020200002CF002E40CF0ED040CF04370E43816840
:1020300056EA0146FEF721F9FEF7AAFA56EA032608
:1020400001F0F2F800BD04370437FEF753FA8901B6
:102050008268D2000E431643FEF70FF9FEF798FA96
:102060001E4301F0B2F800BD802000006102023181
:102070002D00013E704747F8046D41F640663DE093
:1020800098200000610202312B000136704747F8AA
:10209000046D41F6404631E0B0200000610202329A
:1020A0002D00023E704747F8046D41F6806625E03A
:1020B000C8200000610202322B000236704747F848
:1020C000046D41F6804619E0E220000061020563DC
:1020D000656C6C2B0436704747F8046D41F600566A
:1020E0000CE0142100006102066E656761746500F2
:1020F0007642704747F8046D44F2402600B5FEF77B
:10210000BDF90168C9000E43FEF742FA1E4301F013
:102110005CF800BD2C2100006102036E6F74F64371
:10212000704747F8046D44F2C036E7E744210000E9
:102130006102037368727608704747F8046D40F6D1
:102140004006DBE75421000061020373686C7600EF
:10215000704706E06A210000610202322A00760020
:10216000704747F8046D4026C8E7822100006102ED
:102170000563656C6C73B600704747F8046D802684
:10218000BCE79A210000610202322F0076107047EE
:1021900047F8046D41F24006B0E7D6210000610225
:1021A00003616273F01736184640704700B5FEF7BA
:1021B00065F947F8046D42F60006016809020E430E
:1021C00001F003F847F8046D4DF2005600F0FDFFF2
:1021D000FFF790FF00BDF4210000420005752F6D50
:1021E0006F6401CF3100B0FBF6F67143401A043F33
:1021F00038607047122200004200042F6D6F6400A7
:1022000001CF310090FBF6F67143401A043F38606D
:102210007047262200004200036D6F6400B5FFF78F
:10222000EFFF40CF00BD662200006202012F01CF08
:1022300090FBF6F6704700B5FEF72AF9FEF75AF95B
:10224000FEF762F947F8046D234E01680E4381687A
:1022500056EA0146FEF711F8FEF79AF956EA032608
:1022600000F0E2FF00BD7A2200006100046576659F
:102270006E00012030403618704792220000810025
:1022800004626173650047F8046D144E70470A00DC
:102290000000A822000000000662696E61727900E9
:1022A0000E48022101607047BE2200000000076452
:1022B0006563696D616C09480A21016070470C23F0
:1022C0000000000003686578044810210160704731
:1022D000000010F10000B0F1F0F090FBFC9F002036
:1022E00071497248086072497248086072497348BF
:1022F0000860734973480860734946200860734951
:1023000073480860734974480860704728230000C8
:10231000810009686F6F6B2D656D697447F8046DF6
:102320006E4E7047122400004423000081000868AC
:102330006F6F6B2D6B65790047F8046D684E7047C1
:10234000382400006223000081000A686F6F6B2D43
:10235000656D69743F0047F8046D624E70476224F2
:1023600000007E230000810009686F6F6B2D6B6594
:10237000793F47F8046D5C4E70478E2400009C2323
:10238000000081000A686F6F6B2D706175736500C6
:1023900047F8046D554E704772470000B2230000A5
:1023A000000004656D6974000FB54C4800F026F814
:1023B0000FBDC62300000000036B65790FB54848C8
:1023C00000F01CF80FBDD8230000000005656D6902
:1023D000743F444800688746EA2300000000046B0D
:1023E00065793F00404800688746002400000000EF
:1023F0000570617573653D480068874600688746CB
:102400002624000000000B73657269616C2D656DF8
:10241000697400B500F025F8002E40CFFAD0344A98
:10242000167040CF00BD4E24000000000A73657294
:1024300069616C2D6B65790000B500F028F8002EFD
:1024400040CFFAD047F8046D2A4A167800BD7C24A4
:10245000000000000C73657269616C2D656D697414
:102460003F0000B5FFF7C7FF47F8046D002622487C
:1024700001688020014000D0F64300BDFC2400002C
:1024800000000B73657269616C2D6B65793F00B557
:10249000FFF7B1FF47F8046D0026174801682020B8
:1024A000014000D0F64300BD1410024014007E002D
:1024B000181002400040000000000048000028A85A
:1024C00024000048700700000C3801400838014023
:1024D00000100000003801400D000000F89F0020AF
:1024E000F49F0020F09F0020EC9F0020E89F002038
:1024F00028380140243801401C38014020250000C4
:102500000000076365787065637400B5386801B4CE
:102510000130386000F00BF801BC067040CF00BD00
:10252000962500000000066163636570740000B5C5
:1025300002CF01390022FFF741FF300040CF7F2852
:1025400009D0202819D2092816D00A281FD00D2812
:102550001DD00828EFD1002AEDD000F00EF90308B5
:102560002008002AE7D0885C013A80230340E2D0AB
:1025700040230340F5D0DEE72020B242DBD247F80B
:10258000046D0600FFF710FF01328854D3E71600F0
:1025900000F0A2F800BDA8250000400003746962A5
:1025A00047F8046D294E7047BE2500008100033EA8
:1025B000696E47F8046D264E704700000000E42560
:1025C000000082000E63757272656E742D736F75F4
:1025D0007263650047F8046D1E4E704700000000EE
:1025E000C400002000260000000009736574736FAA
:1025F00075726365174802CF0660416040CF70472F
:102600001E260000000006736F757263650047F8B0
:10261000046D104E043F7068386036687047582665
:10262000000000000571756572790FB5084800213A
:102630000160FFF7B5FF47F8046D47F8046DC82641
:10264000FFF775FFFFF7D6FF0FBD0000C4000020A5
:10265000E49F0020DC9F0020A62600000000076306
:102660006F6D706172650FB5310040CF01CF884248
:1026700002D040CF00260FBD02CF002810D0013875
:102680000A5C335C412A02D35B2A38BF2032412BDB
:1026900002D35B2B38BF20339A42EED000260FBD09
:1026A0000026F6430FBDBA26000000000263720048
:1026B00000B500F062F8010A00BDCC260000000061
:1026C00002626C0047F8046D20267047E026000087
:1026D000000005737061636547F8046D202663E6AA
:1026E000002700000000067370616365730000B589
:1026F000002E03DDFFF7F0FF013EFBD140CF00BD10
:10270000102700005000065B636861725D0005E001
:1027100028270000000004636861720000B501F022
:1027200045FC40CF367800BD382700005004012812
:1027300047F8046D292606E0522700005004015C8A
:1027400047F8046D002600B501F03AFC043740CF8D
:1027500000BD962700001000022E22009B4800B505
:1027600047F8046D060000F05EFA47F8046D222673
:1027700001F026FC00F068FD00BD0AB447F8046DC6
:102780007646013E33780121013319405B181EEB78
:10279000030E0ABC39E0BC270000100002632200CF
:1027A0008B48DCE747F8046D7646013E337801211B
:1027B000013319405B181EEB030E7047E62700003B
:1027C0001000027322008348C9E747F8046D76467B
:1027D00047F8046D013E36780121731C19405B18DF
:1027E0001EEB030E7047FE270000000005636F75A7
:1027F0006E74013647F8046D013E3678704726281E
:102800000000000005637479706501B53078002818
:1028100007D0013647F8046D3678FFF7C5FD01385B
:10282000F7D140CF01BD5428000000000474797036
:102830006500310040CF300040CF00B5002908D0FE
:10284000002247F8046D865CFFF7AEFD013291422D
:10285000F7D100BD8E2800000000046865782E00C6
:1028600007B5310040CF20200F22043847F8046D0F
:102870000E00C6401640092E01D9373600E030362A
:10288000FFF792FD0028F0D1FFF726FF07BD9E2835
:102890000000000003682E731FB54F4C0EE0AE28F9
:1028A0000000000003752E731FB54C4C06E02C2968
:1028B00000000000022E73001FB5494C4949C91B96
:1028C0008908494A106803B40A201060FFF755FFD1
:1028D00008537461636B3A205B0047F8046D0E0087
:1028E00001F03DFDFFF749FF025D200003BC3E4AB9
:1028F000106000290AD03D4A106806B447F8046DFC
:102900000600A04706BC043A0139F5D1FFF735FFB0
:102910000620544F533A200047F8046D3600A04774
:10292000FFF72BFF04202A3E0A001FBDF0290000FC
:10293000000005776F72647300B5FFF71EFF010A90
:1029400000F0BFFEFFF719FF0941646472657373FD
:102950003A2047F8046DFFF783FFFFF70EFF064CA0
:10296000696E6B3A200047F8046D3668FFF778FF10
:10297000FFF703FF07466C6167733A2047F8046D61
:10298000B688FFF76DFFFFF7F8FE06436F64653A00
:102990002000B01D00F0CEFE47F8046D0600FFF7E2
:1029A0005FFFFFF7EAFE064E616D653A200047F8CB
:1029B000046D0636FFF729FFFFF7DFFE010A00F07E
:1029C00097FE300040CFBDD040CF00BD7A27000039
:1029D000A4270000CA270000612800004F43000020
:1029E0005F4300008C020020FC9F00208802002032
:1029F000542B000000000D3132626974656E636F04
:102A000064696E670FB5FF2E04D847F8046D5FF058
:102A1000FF360FBD16F0FF10B0420ED14FF6FF711A
:102A20000840310C814208D116F0FF0656F480565A
:102A300047F8046D5FF0FF360FBD16F0FF20B0427F
:102A40000FD14FF6FF710840310C814209D1360A8F
:102A500016F0FF0656F4005647F8046D5FF0FF3697
:102A60000FBDFF2231001140300A1040884210D1C2
:102A7000300C104088420CD1300E1040884208D1F2
:102A800016F0FF0656F4405647F8046D5FF0FF3627
:102A90000FBD300000210131001850F100007FF01F
:102AA0007F020240802A05D01F29F4D347F8046D25
:102AB00000260FBD0829F9D3060036F0800611F074
:102AC0000100C001064311F00E00C002064311F0E0
:102AD00010008005064347F8046D5FF0FF360FBD18
:102AE00047F8046DDFF854665FF4704110EA0102A4
:102AF000120116435FF4006110EA0102D20316438B
:102B00005FF4E06110EA010212011643FF2110EAAE
:102B1000010216431E4387E347F8046DDFF8206681
:102B20005FF0704110EA0102120B16435FF0006182
:102B300010EA0102520816435FF0E06110EA010258
:102B4000120B16435FF47F0110EA0102120C1643C8
:102B50001E4369E3BA2B00000000107265676973B9
:102B60007465726C69746572616C2C000FB533000A
:102B700040CF1B02FF2E05D856F400561E4300F02E
:102B800024FB0FBDFFF73EFF002E40CF06D0DFF83D
:102B9000B40506431E4300F047FB0FBDF643FFF7A5
:102BA00031FF002E40CF06D0DFF89C0506431E43C0
:102BB00000F03AFB0FBDF6430BE01A2C00000000BA
:102BC000096D6F76776D6F76742C0FB5330040CF3B
:102BD0001B02300040CFFFF783FF4FF6FF7110EA72
:102BE000014001D0FFF798FF0FBD0FB5013630004F
:102BF00040CF0023FFF774FFFFF78EFF06E00FB50D
:102C0000013647F8046D0026FFF7B0FF47F8046D62
:102C100044F2807600F0D9FA0FBD802C000000004D
:102C20000563616C6C2C0FB5330000F026FE30009C
:102C300040CF1B1A043BDFF814151940002906D0B9
:102C4000DFF80C25914202D0BDE80F40D7E740CF16
:102C50005B08DFF8000540F2FF7119400843DB0A0A
:102C600040F2FF311940090408439B0A13F00101A7
:102C70008906084347F8046D060000F0D5FA0FBD39
:102C8000B62C00000000086C69746572616C2C0041
:102C900008B547F8046D4FF6470600F096FA47F876
:102CA000046D46F6045600F090FA47F8046D0626C7
:102CB000FFF75CFF08BDDA2C0000000006637265B8
:102CC0006174650000B500F033F842F6F7408047C4
:102CD00047F8046DBEF1010600BD222D0000200062
:102CE00005646F65733E42F6F740804747F8046D10
:102CF000BEF10106704747F8046DBEF10106DFF82A
:102D000058241368DFF8541409680220084000D0E2
:102D1000023102311160FFF768FF136000F0C4F95F
:102D200000BD642D00000000073C6275696C64738F
:102D300000B500F055FB00F0A0FD0220064040CF9A
:102D400004D047F8046D362600F03FFA47F8046DCA
:102D50004BF2005600F039FA47F8046D0A2600F0ED
:102D6000A6FA00BD702D00005000035B275D03E054
:102D7000882D00000000012700B501F017F900F0D0
:102D800017FD300040CF00BDBE2D000030000870A0
:102D90006F7374706F6E650000B5FFF7EDFF47F855
:102DA000046D060039683E600E46FFF771FFFFF7BD
:102DB0006FFF47F8046DEA4EFFF735FF00BD142E94
:102DC0000000000007696E6C696E652C00B54BF25F
:102DD00000514BF6005244F270733088884208D09C
:102DE000904208D0984206D047F8046D060000F0E3
:102DF000ECF90236F1E740CF00BD0EB44BF60052BD
:102E000044F2707301880230914201D09942F9D1A5
:102E10000EBC70472A2E00000000047265742C005E
:102E200047F8046D4BF60056CFE1382E0000300015
:102E3000046578697400F3E7502E000030000772D3
:102E400065637572736547F8046DC44E3668EAE6CB
:102E5000682E0000810005737461746547F8046D85
:102E6000C04E7047000000007A2E00000000015D97
:102E7000BC480021C943016070478A2E0000100041
:102E8000015BB848002101607047AA2E00000000D5
:102E9000013A00B5B448076000F0A2FAB148012138
:102EA0000160B2480021016000BD1C2F0000300805
:102EB000013B00B5AC480168B9420ED0FFF75DFC9C
:102EC0001520537461636B206E6F742062616C61B6
:102ED0006E6365642E0A01F0DABBA2480068411CEB
:102EE00010D00B2805D847F8046D40F6200600F0F6
:102EF0000AF947F8046D44F2707600F066F901F0C3
:102F0000CCFA05E047F8046D4BF6005600F05DF989
:102F100000F0CAF893480021016000BD302F000086
:102F200000000765786563757465300040CF87469B
:102F3000482F0000100009696D6D65646961746552
:102F400047F8046D1026DEE05E2F00005000066991
:102F50006E6C696E650047F8046D2026D3E0782F0B
:102F6000000010000B636F6D70696C656F6E6C799B
:102F700047F8046D3026C6E0922F000050000A305A
:102F80002D666F6C6461626C650047F8046D4026C5
:102F9000B9E0AC2F000050000A312D666F6C6461FF
:102FA000626C650047F8046D4126ACE0C62F000056
:102FB00050000A322D666F6C6461626C650047F8E0
:102FC000046D42269FE0E02F000050000A332D667A
:102FD0006F6C6461626C650047F8046D432692E093
:102FE000FA2F000050000A342D666F6C6461626C29
:102FF000650047F8046D442685E014300000500059
:103000000A352D666F6C6461626C650047F8046D6B
:10301000452678E02E30000050000A362D666F6C91
:103020006461626C650047F8046D46266BE04830C9
:10303000000050000A372D666F6C6461626C650099
:1030400047F8046D47265EE0783000000000086312
:103050006F6E7374616E740000B500F0C1F9FFF714
:1030600017FE47F8046D44F2707600F0AEF8FFF7F3
:103070008CFF00F019F800BD9A3000000000093202
:10308000636F6E7374616E7400B500F0A9F93968EE
:103090003E600E46FFF7FCFDE1E7F6300000000061
:1030A00006736D756467650000B52B4801682A4A90
:1030B00091421AD202390A882D4B9A4204D147F81C
:1030C000046D2C4E00F081F800F06EF82A4800687C
:1030D00047F8046D06002949096804311E4A13683F
:1030E000116000F072F8136000BD00F05DF847F861
:1030F000046D002608E0803100000000087365744C
:10310000666C6167730000B513480168124A91420A
:1031100005D2194801683143016040CF00BD32003B
:1031200040CF1648006804300188114B994201D104
:10313000110000E01143018000BD0000000040F2DA
:103140000000C0F200005FF000007FF00100C0FF4F
:103150000000C0FF00F800F0000000201400002074
:103160009E430000D89F0020100000205C0000203B
:10317000FFFF0000000000002000002004000020ED
:103180009C310000410007616C69676E6564012035
:10319000304036180220304036187047C0310000E9
:1031A000000005616C69676E00B582480168022005
:1031B000014004D047F8046D002600F006F800BD79
:1031C00004320000000002682C000FB5B6B27A4845
:1031D0000168002902D0013100D001607548016802
:1031E000744A914205D247F8046D0E00FEF704FEC2
:1031F00002E0320040CF0A8047F8046D022600F05A
:1032000056F80FBD1E3200000000012C00B547F833
:10321000046DFFF7DAFF360CFFF7D7FF00BD3A3237
:1032200000000000033E3C2C00B547F8046D360C4E
:10323000FFF7CBFFFFF7C9FF00BDA232000000007F
:1032400007737472696E672C07B5FF21314040CF58
:10325000300040CF002905D147F8046D0026FFF764
:10326000B4FF07BD47F8046D067836020E43FFF73A
:10327000ACFF0130013902290AD347F8046D4678C2
:10328000360202781643FFF7A0FF02300239F2E758
:10329000002900D107BD47F8046D0678FFF795FFB8
:1032A00007BDFC320000000005616C6C6F74414882
:1032B0000168404A91420FD2320040CF89183F4AFC
:1032C000914219D3FFF759FA0B466C617368206677
:1032D000756C6C0A01F0DBB9320040CF8918384AAE
:1032E0001268914208D3FFF748FA0952616D2066CF
:1032F000756C6C0A01F0CBB9016070472433000093
:1033000000000D636F6D70696C65746F72616D3F65
:1033100047F8046D0026274800682649884248D3AC
:10332000F64370474433000000000C636F6D706912
:103330006C65746F72616D001E4800681D4988429B
:1033400011D37047D033000000000E636F6D7069B9
:103350006C65746F666C6173680016480068154987
:10336000884200D270471748174902680B680A6004
:1033700003601048154902680B680A600360104832
:103380000068834215D300B5FFF7F7F92320566193
:10339000726961626C657320636F6C6C696465202F
:1033A000776974682064696374696F6E6172790A01
:1033B00000BD704700000020D89F002000000400DE
:1033C00024000020040000201C0000201800002021
:1033D000BA34000000000828637265617465290032
:1033E00000B500F0E3FD002E0ED1FFF7C6F9152061
:1033F000437265617465206E65656473206E616DEE
:103400006520210A01F043B9386847F8046D043F8C
:10341000386000F09EF940CF002E40CF11D03868C0
:1034200047F8046D043F3860FFF7A7F90952656457
:103430006566696E6520FFF7FCF9FFF79EF9022EBD
:103440000A00FFF7B1FE00F018FA8E4800688D49B7
:1034500088421CD28C480021016047F8046D062682
:10346000FFF725FFFDF7D2FDFFF7EEFE8748016865
:103470000A68874B9A4207D1824A1368116047F85D
:10348000046DFFF7C3FE1360066040CF10E07F4875
:1034900047F8046D0668FFF7B9FE47F8046D7D4EE6
:1034A000FFF793FE7948310040CF0160FFF7CCFE73
:1034B000744801687848016000BDD2340000000003
:1034C000087661726961626C650047F8046D0126D7
:1034D00013E0EA340000000009327661726961622B
:1034E0006C6547F8046D022607E0C4350000000053
:1034F000096E7661726961626C6500B5FFF770FFF5
:10350000604801685F4A914234D20F200640B20001
:1035100062480168891A624A91420BD2FFF72DF97D
:103520000F4E6F7420656E6F7567682052414D0AAB
:1035300001F0ADB8016047F8046D0E00FFF7A8FB7D
:1035400047F8046D44F27076FFF73FFE300040CF3D
:103550000200002805D00E600431FFF757FE013845
:10356000F9D147F8046D80261643FFF7CCFDFFF72D
:103570009BFD00BD00F081F90220064040CF04D140
:1035800047F8046D3626FFF720FE47F8046D454ED8
:10359000FFF74AFE47F8046D434EFFF745FE47F834
:1035A000046D44F27076FFF710FE300040CF002823
:1035B00003D0FFF72BFE0138FBD1FFF7E6FCFFF746
:1035C00073FD00BDAC3600000000076275666665DD
:1035D000723A00B5FFF704FF012030403618022090
:1035E0003040361827480168264A914228D22B4895
:1035F0000168891B2A4A91420BD2FFF7BEF80F4E91
:103600006F7420656E6F7567682052414D0A01F036
:103610003EB8016047F8046D0E00FFF739FB47F82C
:10362000046D44F27076FFF7D0FDFFF7EFFD47F829
:10363000046D40F24016FFF766FDFFF735FD00BD53
:1036400000F01BF90220064040CF04D147F8046D7A
:103650003626FFF7BAFD47F8046D124EFFF7E4FD7A
:1036600047F8046D104EFFF7DFFD47F8046D44F294
:103670007076FFF7AAFDFFF71AFEFFF786FCFFF74B
:1036800013FD00BD000000202000002004000020E9
:10369000FFFFFFFFFFFF00001400002024000020B8
:1036A0008C0300203E60043F02367E46DA3600007E
:1036B00000000F64696374696F6E6172797374617D
:1036C000727441480068404947F8046D884201D24D
:1036D0003E4E70473E4E366870471437000000007B
:1036E0000E64696374696F6E6172796E65787400D7
:1036F00003B531683748814207D08879FF2804D064
:103700000E0047F8046D002603BD47F8046D00263F
:10371000F64303BD4637000000000A736B697073FF
:103720007472696E67003178013101220A4089188C
:103730007618704706B40178013101220A408918D1
:10374000401806BC7047DC37000000000466696E54
:1037500064003FB500220023350040CF340040CF45
:10376000FFF7AFFF1C48B188884217D047F8046DB7
:103770000636FFF73EF847F8046D260047F8046D5B
:103780002E00FEF770FF002E40CF07D0B01DFFF7D0
:10379000D1FF02000B000C48824204D2FFF7A8FFC1
:1037A000300040CFDED0160047F8046D1E003FBD4C
:1037B00000B531003868FFF7CCFF3A68002A01D124
:1037C00000F019FF00BD000000000020880100008B
:1037D00004000020FFFFFFFFFFFF0000363800005D
:1037E000000006636A756D702C00320040CF310016
:1037F00040CF8B1B043BE749194000290DD0E64818
:1038000081420AD0FEF7B9FF0D4A756D7020746FC2
:103810006F206661720A00F03ABF5B10FF210B4017
:10382000134330001E0000B5DC4A13681060FFF738
:10383000CCFC136000BD6E3800000000056A756D99
:10384000702C310040CF300040CF0B1A043BD449DC
:103850001940002902D0D34A9142D3D15B10D24AF9
:10386000134053F4604347F8046D1E00DBE78438CF
:103870000000000004686572650047F8046DC74EDB
:1038800036687047BA39000000000D666C617368D5
:103890007661722D6865726547F8046DC34E3668AF
:1038A000704700B547F8046D42F60066FFF78DFCDF
:1038B00047F8046D4CF64076FFF787FC00BDDCE767
:1038C00000B500F03AF839683E600E4647F8046DDE
:1038D0004DF20016FFF789FF00BD00B500F02DF88E
:1038E00039683E600E4647F8046D4DF20076FFF7EA
:1038F0007CFF00BD00B5FFF7D4FF00F01EF839686B
:103900003E600E4647F8046D4DF20006FFF76DFF6E
:1039100000BD00B500F011F839683E600E46FFF7B3
:1039200090FF00BD00B5FFF7BCFFFFF7A6FF47F80B
:10393000046D0226FFF7BBFC00BD00B5FFF79DFF3D
:1039400047F8046D0226FFF7B2FC00BD00B5FFF793
:1039500094FFFFF776FF00BD00B5FFF78EFF47F835
:10396000046D4DF20006FFF740FF00BD00B5FFF704
:1039700084FF47F8046D4DF20016FFF736FF00BDD7
:1039800000B5FCF77BFDFCF7AFFCFCF7B2FCFCF7E5
:10399000B5FC8168282901D1FCF7B6FDFCF7AAFD2A
:1039A00047F8046D42F6000609020E43FFF70DFCCE
:1039B000FCF763FCFCF78CFC00BD2E3A00003006DF
:1039C0000269660000B5FFF7ADFF47F8046D4DF2E0
:1039D000000647F8046D022600BD00B5FCF7E1FDC6
:1039E000FDF7ACFE816A002910D002B4FCF770FC30
:1039F000FFF743FF47F8046D0226FFF758FC47F82E
:103A0000046D40BC47F8046D022600BDFFF7B8FF07
:103A1000FFF733FF47F8046D0226FFF748FC47F82D
:103A2000046D4DF2000647F8046D022600BD603AB1
:103A30000000300004656C73650000B5022E25D1CE
:103A400040CFFFF77AFFFDF7E1FAFFF716FF39687D
:103A50003E600E46FFF7C9FE47F8046D052600BD1F
:103A6000AC3A00003000047468656E00052E01D188
:103A700040CF6BE7022E09D140CF00B5FFF7FDFE26
:103A800039683E600E46FFF7B0FE00BDFEF775FEDA
:103A9000175374727563747572657320646F6E2743
:103AA00074206D617463680A00F0F1BDDA3A0000B9
:103AB00030000672657065617400042EE6D140CF57
:103AC00000B5FDF787FAFFF724FFFFF7D6FE396848
:103AD0003E600E46FFF789FE00BD063B0000300643
:103AE000057768696C65012ED0D140CF00B5FFF72E
:103AF00069FF023600BD012EC8D140CF00B5FFF7E7
:103B00006CFF023600BD663B0000300605756E7422
:103B1000696C012EBAD140CFECE67047012EB5D1C9
:103B200040CF00B5FDF70AFE816A00290DD002B42E
:103B3000FCF7CEFBFFF701FF39683E600E4647F801
:103B4000046D40BCFFF751FE00BDFFF719FFFFF702
:103B5000F4FE39683E600E4647F8046D4DF20006EB
:103B6000FFF743FE00BD7A3B00003000056167614E
:103B7000696E012E8AD140CFCBE6B03B0000300009
:103B800005626567696E00B5FFF799FE47F8046D39
:103B9000012600BD01FFFFFF00FFFFFF0000002026
:103BA00001F8FFFF00F8FFFFFF07000024000020DE
:103BB000CA3B00002002016B47F8046D029E70476B
:103BC00047F8046D49F602060BE0F83B00002002BE
:103BD000016A47F8046D009E704747F8046D49F686
:103BE000000600B5FCF73FFBFCF714FC03601B026A
:103BF0001E43FFF7EAFA00BD243C000020020169E1
:103C000047F8046D2600704700B547F8046D40F290
:103C10002006FCF728FBFCF7FDFB03601E43FFF7C3
:103C2000D4FA00BD623C00003000056C6561766529
:103C300000B5754801683B00043F1A68043B1A60F0
:103C400008338B42F9D103B4FFF777FE03BC33008E
:103C500040CF04390B60016004390A6801320A6000
:103C600000BD743C0000200006756E6C6F6F700024
:103C700030BC7047AC3C00003000052B6C6F6F709F
:103C8000032E00D002E740CF00B547F8046D5F4E29
:103C9000FFF79CF8FFF721FE1AE014F10044641BC3
:103CA000A41940CF2C44A4F100447047EE3C00001E
:103CB0003000046C6F6F7000032E00D0E6E640CF3A
:103CC00000B547F8046D524EFFF780F8FFF7F8FD96
:103CD00000F052F94C48310040CF016047F8046DC4
:103CE0004C4EFFF773F800BD0134AC427047363DCF
:103CF0000000300202646F0000B547F8046D464EC4
:103D0000FFF764F84048016847F8046D0E0047F873
:103D1000046D00260760FFF7D2FD47F8046D032607
:103D200000BD00B500F02FF8ECE730B4340040CF10
:103D3000350040CF70471C3E00003002033F646FE7
:103D400000B547F8046D344EFFF740F847F8046DAE
:103D500044F2AC26FFF739FA2B48016847F8046DA6
:103D60000E00FFF7EAFD013647F8046D01262648EC
:103D70000760FFF7A4FD47F8046D032600BD00B5FA
:103D800000F001F8E2E700B5FCF70BFCFCF780FB64
:103D9000FCF7AAFAFCF7ADFAFCF7B0FA47F8046DA5
:103DA0004BF23046FFF711FA0168282908D047F88E
:103DB000046D40F20406C9000E43FFF706FA07E05F
:103DC00047F8046D466847F8046D0426FEF7CEFEFA
:103DD0008168282908D047F8046D40F20506C9001B
:103DE0000E43FFF7F2F907E047F8046DC66847F89D
:103DF000046D0526FEF7BAFEFCF73FFAFCF73DFA24
:103E0000FCF786FA00BD00000C0000209A3C000080
:103E1000E83C0000703C00002A3D00003C3E0000F1
:103E2000300004636173650000B5FCF7BAFB47F826
:103E3000046D002647F8046D082600BD523E0000C0
:103E40003000033F6F66714809E0013EB64140CF44
:103E50007047183F00003002026F66006C48082E61
:103E600000D013E640CF00B547F8046D0600FEF71A
:103E7000ADFFFFF762FD39683E600E46013647F838
:103E8000046D092647F8046D4CF64076FFF79DF95E
:103E900000BD082E00D0F9E540CF00B5FCF7F8FAD8
:103EA000FCF722FAFCF725FAFCF728FA47F8046D2C
:103EB00044F28026FCF728FB0E430268282A1ED114
:103EC0004268FF2A08D840CF47F8046D42F6000642
:103ED000164309020E4314E047F8046D4668FEF7E6
:103EE00091FD04CF002E40CF06D04A4E164356EA2D
:103EF0000146FFF799F906E0FCF7FCFA0A00D20048
:103F00001643FFF762F9FCF7B8F9FCF701FAB0E7DE
:103F1000300040CFB04270474E3F00003000056592
:103F20006E646F66092E00D0B0E540CF00B540B496
:103F300040CFFFF702FD39683E600E46FFF716FDE1
:103F400047F8046D40BC47F8046D082600BDA03F4B
:103F50000000300007656E6463617365082E00D051
:103F600094E540CF00B547F8046D4CF64076FFF776
:103F70002CF900F001F800BD00B5300040CF00285A
:103F80000DD003B401213140002903D0013EFFF7D9
:103F9000E3FC01E0FFF7DAFC03BC0138EFE700BD0A
:103FA000B43F0000000005746F6B656E47F8046D48
:103FB000202605E01C40000000000570617273655A
:103FC00010B5FEF724FB310040CF300040CF124A3D
:103FD00012688418202E07D191420FD0835CB3421F
:103FE00002D101328418F7E7914207D0835C013295
:103FF000B342F9D18618361B013E01E08618361B04
:10400000043F3C600448026010BD00004A3E0000CE
:10401000103F0000000FB0F1E49F00205A40000064
:104020000000056469676974CF4B1B68303E0BD391
:104030000A2E0BD3073E0A2E06D3242E06D3203E8B
:104040000A2E01D3242E01D3002670479E42FBD2B4
:1040500047F8046D0026F6437047644100000000F5
:10406000066E756D626572003FB5310040CF701EFF
:104070000126012204B4BC4B1B6800240025002942
:104080003CD00130013902782D2A04D101B0002240
:10409000D24304B4F3E7232A01D10A23EFE7242A09
:1040A00001D11023EBE7252A01D10223E7E72E2ACD
:1040B00001D10226E3E72C2A36D047F8046D16001A
:1040C000FFF7B4FF002E40CF2BD047F8046D260039
:1040D00047F8046D2E0047F8046D1E0047F8046D84
:1040E00000260FB4FCF765FC0FBC350040CF340050
:1040F00040CF0022A419554140CFC0E704BC002A9C
:1041000004D50022E443ED43013455413300260039
:10411000012B02D047F8046D2E0047F8046D1E00F5
:104120003FBD01B000263FBD250000240226002926
:10413000E4D0425C01392E2AF9D047F8046D16000C
:10414000FFF774FF002E40CFEBD0043F3C6047F8F0
:10415000046D1E000FB4FCF7DBFC0FBC340040CF35
:1041600040CFE4E7864100000000062E64696769DD
:1041700074000A2E01D230367047242E01D2373611
:10418000704723267047BC410000000004686F6C34
:104190006400330040CF754801783F290DD20131CA
:1041A00001704018012907D00138027801300270EF
:1041B000013801390129F7D103707047DC41000053
:1041C000000005686F6C643C330040CF674801789D
:1041D0003F2902D20131017043547047F44100007D
:1041E0000000047369676E00002E01D440CF704751
:1041F0002D26CEE708420000000002233E005B4867
:1042000006780130386070472042000000000366E5
:10421000235310B5202400F008F8013CFBD110BD59
:104220004242000000000266230000B547F8046D1A
:104230004D4E3668FCF77FFBFFF79BFFFFF7C4FF8F
:1042400000BD5E42000000000223530000B500F0F4
:104250000AF8002EFBD138680028F8D100BD8A4248
:1042600000000000012300B547F8046D3E4E36689B
:1042700047F8046D0026FCF76AFCFCF7CAF940CF4A
:10428000FFF777FFFFF785FF00BD9C4200000000AD
:10429000023C23003548002101707047AE42000007
:1042A000000002662E0047F8046D202604E0FC4260
:1042B0000000000003662E6E00B510B4340040CF3D
:1042C000FCF776FEFCF7BCFA47F8046D0026FFF712
:1042D000E1FFFFF7BBFF40CF2C26FFF775FF002C57
:1042E00003D0FFF7A2FF013CFBD110BC40CFFFF78A
:1042F0007BFF47F8046D47F8046D1CE01243000093
:1043000000000375642E00B5FFF7C4FFFFF79EFFA2
:1043100011E044430000000002642E0000B5FCF7E9
:1043200047FEFCF78DFAFFF7B5FFFFF78FFFFCF7AD
:1043300051FEFFF759FFFFF762FFFEF77AFAFEF72B
:10434000CBF900BD56430000000002752E0047F86F
:10435000046D0026D7E7224500000000012E47F833
:10436000046DF617DAE70000FC9F002084000020AF
:1043700030B5D74C2568002D01D13D00256030BDFA
:1043800030B5D34C3D00256030BD30B5D04C002554
:10439000256030BDCE4B1B68DB1B9B08704700B50A
:1043A000310040CFCB48084002D000F0A2F800BD59
:1043B000C948084001D1FDF77CF9320040CFFFF732
:1043C000D7FFC648084003D047F8046D160000BD6B
:1043D000FFF7E0FF8020084006D14020084009D0C8
:1043E0000F200840834205D347F8046D1600FEF7FE
:1043F0009CFD00BDBA48084014D0FBF7D8FE47F832
:10440000046D160047F8046D0E0000F030F810003F
:10441000FEF7F3FC421CB3489047FFF7B1FFFBF7F0
:10442000D5FE00BDFBF7C3FE47F8046D160047F844
:10443000046D0E0000F01BF8FBF74AFFFFF7A5FF25
:10444000A948084001D1FCF7ACF847F8046D160004
:1044500010220A4002D0FEF768FD00BD20220A406B
:1044600002D0FEF7B3FC00BDFEF7DDFB00BD0FB5CB
:10447000320040CF330040CF9C480168062907D264
:10448000062041439A48401803801B0C43808280D9
:1044900096480168013101600FBD0FB5934801686E
:1044A00006291FD8924801391DD047F8046D0E0027
:1044B000FEF78BFE47F8046D0688FEF786FE47F888
:1044C000046D4688FEF781FE47F8046D8688FEF786
:1044D0007CFE06300139EDD147F8046D41F200064B
:1044E000FEF711FE0FBD47F8046D4026FEF70BFEE8
:1044F0000FBD00B5300040CFFEF77FFC01880230D1
:1045000047F8046D068842881204164347F8046D84
:10451000868803B4FFF743FF03BC06300139EFD1AF
:1045200000BD6A4500000000086576616C75617425
:10453000650000B5FEF76BF801CF01B440B440CF81
:104540006C48016802B400210160FEF753F800F0E6
:1045500014F8684802BC016047F8046D40BC01BC17
:10456000043F3860FEF746F800BD664600000000D4
:1045700009696E7465727072657400B55E48874231
:104580000BD9FEF7FAF810537461636B20756E64F3
:104590006572666C6F770A0079E0584887420AD2E4
:1045A000FEF7EBF80F537461636B206F76657266EC
:1045B0006C6F770A6BE0FFF7DBFEFFF7F7FC002E6E
:1045C00002D1043740CF00BD386847F8046D043F7E
:1045D0003860FFF7BEF8310040CF320040CF002AEC
:1045E00015D138683100FDF764F8FFF73DFD320062
:1045F00040CF002AC2D1FEF720F9FEF7BEF80C200A
:104600006E6F7420666F756E642E0A003FE03C4B3F
:104610001B68002B1CD1FFF7B8FE30230B40302B5A
:104620000ED1FEF706F9FEF7A8F812206973206391
:104630006F6D70696C652D6F6E6C792E0A0026E0C7
:10464000043740CF47F8046D1600FEF76EFC95E77F
:10465000043740CF47F8046D160047F8046D0E008C
:10466000FFF79DFE8AE782460000810009686F6FB0
:104670006B2D7175697447F8046D224E7047BA4608
:104680000000184700000000047175697400DFF82D
:1046900078D0194F1D480A21016019480021016096
:1046A0000B480160FBF75BFE12480160184801608F
:1046B00018494160134800688746FDF7B6FFFFF7C9
:1046C0005CFFFEF75AF805206F6B2E0AF5E7000035
:1046D000080000200010000000040000002000007E
:1046E0000002000028000020000800005C000020FC
:1046F00060000020E49F00208C0200208C0100203C
:10470000D89F0020D49F00208C030020FC9F002015
:10471000DC9F0020C4000020324700000000056537
:10472000696E743F47F8046DEFF31086013EB641A1
:1047300070474247000020000465696E740062B64D
:1047400070475247000020000464696E740072B61E
:10475000704768470000200004697073720047F8D2
:10476000046DEFF305867047744700000000036E88
:104770006F707047B6470000000009756E68616E83
:10478000646C656400B5FDF7F8FF14556E68616EE2
:10479000646C656420496E74657272757074200073
:1047A00047F8046DEFF30586FEF75AF8FDF7E5FFCD
:1047B00002210A0000BDC8470000000005726573B1
:1047C0006574C548C5490160F247000081000B6966
:1047D00072712D7379737469636B47F8046DC04E01
:1047E00070478447000049F6D070C2F200000068AC
:1047F00087461A4800008100096972712D6661754B
:104800006C7447F8046DB74E70478447000049F652
:10481000CC70C2F200000068874648480000810062
:104820000E6972712D636F6C6C656374696F6E00D5
:1048300047F8046DAC4E70478447000049F6C870D5
:10484000C2F20000006887467048000081000969D4
:1048500072712D657874693047F8046DA34E704706
:104860008447000049F6C470C2F200000068874621
:10487000984800008100096972712D65787469316A
:1048800047F8046D9A4E70478447000049F6C0709F
:10489000C2F2000000688746C04800008100096934
:1048A00072712D657874693247F8046D914E7047C6
:1048B0008447000049F6BC70C2F2000000688746D9
:1048C000E84800008100096972712D6578746933C8
:1048D00047F8046D884E70478447000049F6B87069
:1048E000C2F2000000688746104900008100096993
:1048F00072712D657874693447F8046D7F4E704786
:104900008447000049F6B470C2F200000068874690
:10491000364900008100076972712D61646347F8B0
:10492000046D774E70478447000049F6B070C2F2BC
:104930000000006887465E490000810008697271C6
:104940002D74696D320047F8046D6E4E70478447D0
:10495000000049F6AC70C2F2000000688746864944
:1049600000008100086972712D74696D330047F889
:10497000046D654E70478447000049F6A870C2F286
:10498000000000688746AE49000081000869727126
:104990002D74696D340047F8046D5C4E7047844790
:1049A000000049F6A470C2F200000068874600507B
:1049B0000000FFFF182D2D2D20466C6173682044E8
:1049C000696374696F6E617279202D2D2D00FDF77A
:1049D00087FC4F4885464F4F2A264F484C49016077
:1049E0004E484F49016047F8046D4D4E4D4DB1881A
:1049F0004D4B994224D04D4B0B400AD0B01DFEF7D1
:104A000099FEFEF7FAF90388408800040343ED1A83
:104A100016E080230B4013D00F23194089006D1A34
:104A2000B01DFEF787FEFEF7E8F947F8046D0600B3
:104A300047F8046D2E0047F8046D0E00FCF7FEFEEB
:104A4000FEF756FE300040CFD1D03948066040CF47
:104A50003848056038483949334A884204D002381A
:104A600003889342F9D0023035490860FDF785FE8E
:104A70003A4D6563726973702D5374656C6C617225
:104A8000697320524120322E322E3120666F7220FF
:104A900053544D333246333033206279204D6174A4
:104AA0007468696173204B6F63680A0025480021B0
:104AB000016047F8046D244E47F8046D0426FEF7A4
:104AC00048FE40CF002E02D0FEF72FFAF2E540CF8D
:104AD000DDE5696E697400000CED00E00400FA0584
:104AE000D09F0020CC9F0020C89F0020C49F0020A2
:104AF000C09F0020BC9F0020B89F0020B49F0020D2
:104B0000B09F0020AC9F0020A89F0020A49F002001
:104B10008C0300208C0200200000002004000020F4
:104B20008801000000A00020FFFF0000000100003D
:104B30001C000020240000200000040000500000A1
:0C4B40001800002008000020D24A0000ED
:0400000508000000EF
:00000001FF
