:020000040800F2
:100000008C040020E94C0000A34A0000A34A000031
:10001000A34A0000A34A0000A34A00000000000019
:10002000000000000000000000000000D14A0000B5
:10003000D14A000000000000D14A00007B4A0000C5
:10004000D14A0000D14A0000D14A0000D14A000044
:10005000D14A0000D14A0000F94A0000214B0000BB
:10006000494B0000714B0000994B0000D14A000041
:10007000D14A0000D14A0000D14A0000D14A000014
:10008000D14A0000D14A0000BF4B0000D14A000015
:10009000D14A0000D14A0000D14A0000D14A0000F4
:1000A000D14A0000D14A0000D14A0000D14A0000E4
:1000B000E74B00000F4C0000374C0000D14A000015
:1000C000D14A0000D14A0000D14A0000D14A0000C4
:1000D000D14A0000D14A0000D14A0000D14A0000B4
:1000E000D14A0000D14A0000D14A0000D14A0000A4
:1000F000D14A0000D14A0000D14A0000D14A000094
:10010000D14A0000D14A0000D14A0000D14A000083
:10011000D14A0000D14A0000D14A0000D14A000073
:10012000D14A0000D14A0000D14A0000D14A000063
:10013000D14A0000D14A0000D14A0000D14A000053
:10014000D14A0000D14A0000D14A0000D14A000043
:10015000D14A0000D14A0000D14A0000D14A000033
:10016000D14A0000D14A0000D14A0000D14A000023
:10017000D14A0000D14A0000D14A0000D14A000013
:10018000D14A0000D14A0000C4050000FFFF1E2D27
:100190002D2D204D6563726973702D5374656C6CE1
:1001A0006172697320436F7265202D2D2D0007B594
:1001B0008F48002B09D000F03BF800F041F800F028
:1001C00027F8426028210160F3E707BD00B58848A1
:1001D00000230168282905D1426800F004F800F0E6
:1001E0004CF8F6E700BD03B547F8046D160047F874
:1001F000046D1E0008B400F0B5FF08BC013347F8D9
:10020000046D7C4E47F8046D7B4E04F078FA03BD14
:1002100003B5013B47F8046D1E0008B400F08CFFE5
:1002200008BC320047F8046D744E04F068FA03BD50
:1002300003B5734801681E2901D000F034F803BDEE
:100240008169016201698161816801610168816080
:10025000C16941624169C161C16841614168C16070
:100260001E21016070470FB5614801681E2903D047
:10027000FFF7DEFFFFF7E4FF0FBD02B58168016005
:10028000C168416000E002B5016981604169C160F7
:1002900081690161C1694161016A8161416AC1612C
:1002A0001E21016202BD08B501681E2202600829F4
:1002B00001D20B0004E0282909D1436800F05BF863
:1002C00047F8046D4F4E56EA033603F0EAF808BDCE
:1002D00000B500F009F800F00CF800F00FF800F09D
:1002E00012F800F015F800BD0FB54548FFF7DBFF29
:1002F0000FBD0FB54448FFF7D6FF0FBD0FB54348FC
:10030000FFF7D1FF0FBD0FB54148FFF7CCFF0FBD81
:100310000FB537480168062202601E2906D147F84A
:10032000046D4CF6407603F08DF815E0282909D1CC
:10033000436847F8046D1E0047F8046D062602F076
:100340001BFD09E0062907D047F8046D44F2066654
:10035000C9000E4303F076F800F001F80FBD244801
:100360001E210162816101618160C162062101601B
:1003700000218162704707B547F8046D1E0000F048
:1003800049F847F8046D1E0002F0F6FC07BD07B5FA
:10039000C16A282904D1016B994201D1002307BD0C
:1003A0000168002918D08168002915D00169002949
:1003B00012D0816900290FD0016A00290CD0036393
:1003C00047F8046D1E0047F8046D002602F0D4FCC7
:1003D0002821C162002307BD47F8046D1E0000F00C
:1003E00019F847F8046D1E0002F0C6FC07BD0000B6
:1003F00028000020EC0E0000610200000020000038
:1004000048000020040D47F840000020380000207C
:100410003000002037B53648016882680369846976
:10042000056A062000F00EF8032000F00BF8022009
:1004300000F008F8012000F005F800232C481E21E8
:10044000C16237BD814209D0824207D0834205D0C4
:10045000844203D0854201D0030037BD704747F87E
:10046000046D4CF6007600B581581E2905D1FFF7C2
:10047000D1FF8350012199400E4300BD00B50168B2
:100480001E2904D10022FFF7EAFF02F0DBFF00BDC6
:1004900000B581681E2907D10822FFF7E0FF00227E
:1004A000FFF7E1FF02F0CEFF00BD00B501691E2994
:1004B0000AD11022FFF7D3FF0822FFF7D4FF002252
:1004C000FFF7D1FF02F0BEFF00BD00B581691E2914
:1004D0000DD11822FFF7C3FF1022FFF7C4FF082237
:1004E000FFF7C1FF0022FFF7BEFF02F0ABFF00BD28
:1004F0002800002000B50168282904D14368FFF7CF
:100500003AFF0360190000BD00B58168282904D1B5
:10051000C368FFF730FF8360190000BD00B50169B3
:10052000282904D14369FFF726FF0361190000BDA4
:100530003EB5826803698469056A9A4203D0A24283
:1005400001D0AA420AD1072A08D847F8046DD6007C
:10055000FFF760FF1E43836002F074FF3EBD3EB5AF
:100560000168826803698469056A914206D09942EC
:1005700004D0A14202D0A94200D03EBD47F8046D8C
:10058000CE00FFF747FF1E43036002F05BFF3EBD56
:1005900000B5FFF772FEFFF766FEFFF73BFF036053
:1005A00000BD01B506480368013308D00023DB43D2
:1005B000036047F8046D4BF2005602F043FF01BDA3
:1005C000D87F0120E8050000420204326475700003
:1005D000386847F8046D043F3860704700B500F094
:1005E000D7FC00F0D5FC00BD060600006202053213
:1005F00064726F70043740CF704700B500F078FC2C
:1006000000F076FC00BD4C06000044020532737712
:10061000617007CF043F386047F8046D043F3A60CB
:100620000E00704700B5FFF750FF026803690360D2
:100630000261426843694360426182688369836002
:100640008261C268C369C360C26100BD74060000F4
:10065000620204326E69700007CF043F3860704751
:1006600000B5FFF732FFFFF7DDFFFFF706FEFFF7EC
:1006700004FE00BD8E060000440005326F766572F0
:10068000B86847F8046D043F3860FE687047B206EA
:100690000000440005327475636B07CF043F386077
:1006A00047F8046D043F3A60043F3960043F386006
:1006B0007047D406000046000432726F7400386838
:1006C000B9683A69B86039613A6079687E60FE68F5
:1006D000F9607047F6060000460005322D726F740F
:1006E0003868B9683A6938613960BA60F968FE609B
:1006F0007E68796070471E070000200203323E7258
:1007000001CF01B440B440CF704700B5FFF749FFB7
:1007100000F011FC00F0B1FC00F0AFFC00BD4A0796
:10072000000020020332723E47F8046D40BC01BC59
:10073000043F3860704700B5FFF733FF00F0B9FCA5
:1007400000F0B7FC00F0F7FB00BD7A0700002002C4
:100750000332724047F8046D019E47F8046D009E15
:10076000704700B5FFF71DFF47F8046D49F6010615
:1007700003F07FFB03F079FB00BDA007000020021F
:1007800006327264726F700002B0704700B5FFF7F6
:1007900008FF47F8046D4BF2020602F053FE00BD5D
:1007A000B807000042000364322F3868F107761062
:1007B0004008084338607047CE07000062020364B7
:1007C000322A3868001876413860704717E0E80729
:1007D000000042000464736872003868F10776080C
:1007E000400808433860704734080000620204641F
:1007F00073686C003868001876413860704700B53F
:10080000FFF746FEFFF776FEFFF7A9FE00F093FB29
:10081000FFF770FEFFF7A3FE47F8046D402601F0D6
:100820006DFD00F088FB47F8046D44F2401601F0BE
:1008300065FD00BD4608000042000464616273006B
:10084000002E07D4704764080000420007646E65FC
:100850006761746538680021C043F64301304E413A
:1008600038607047B4080000640202642D0007CFAE
:10087000121AB1410E00043F3A60704700B5FFF70D
:1008800024FE00F0ADFBFFF735FEFFF768FE00F039
:1008900052FBFFF72FFEFFF762FEFFF7C3FE01F0EA
:1008A00097FC00F0B9FB47F8046D44F2801600F0A5
:1008B00045FD00BD02090000640202642B0007CF61
:1008C00012184E41043F3A60704700B5FFF7FDFD36
:1008D00000F086FBFFF70EFEFFF741FE00F02BFB5A
:1008E000FFF708FEFFF73BFEFFF79CFE01F055FC0B
:1008F00000F092FB47F8046D44F2401600F022FD30
:1009000000BD2C090000610203733E6447F8046DCA
:10091000F617704700B500F0D9FAFFF720FE47F848
:10092000046D41F2C07601F0E9FC00BD8A090000C7
:10093000620203756D2A3868A0FB060638607047AE
:1009400047F8046DDFF8286500B5FFF7A1FDFFF754
:10095000D1FDFFF7D9FD01680E43816856EA0146D3
:10096000FFF78BFCFFF789FCFFF77DFCFFF752FDDB
:10097000036056EA0336FFF776FCFFF74BFD036092
:1009800056EA032602F08DFD00BDA80900006202B0
:10099000026D2A00386880FB06063860704747F809
:1009A000046DDFF8D064CFE7E6090000440003756A
:1009B000642A07CF564341437618010C130C594360
:1009C0007618010C80B292B2514343435043002247
:1009D000C91852411204B6180A04090C80184E4175
:1009E000043F38607047780A000044000475646D65
:1009F0002A0010B5002447F8046D7E6847F8046D9E
:100A00003E69FFF798FF310040CF300040CF47F8F4
:100A1000046D3E6847F8046DFE6803B4FFF78BFF72
:100A200003BC330040CF320040CF47F8046D3E682E
:100A300047F8046D3E690FB4FFF77DFF0FBC9219B4
:100A4000634140CF89196241634140CF47F8046D4B
:100A50007E6847F8046DFE680FB4FFF76CFF0FBCAB
:100A60009219634140CF89196241634140CF1E0012
:100A70003A607960B86010BD9A0A00004300022A0B
:100A80002F0000B540B440CFFFF784FF47F8046D56
:100A900040BC00F04CF8043700BDBC0A0000430025
:100AA000052A2F6D6F6400B540B440CFFFF772FF89
:100AB00047F8046D40BC00F03AF800BDDE0A0000C3
:100AC000430003752A2F00B540B440CFFFF733FF32
:100AD00047F8046D40BC00F01BF8043700BD020B62
:100AE0000000430006752A2F6D6F640000B540B406
:100AF00040CFFFF720FF47F8046D40BC00F008F836
:100B000000BD220B0000430006756D2F6D6F640061
:100B100000B547F8046D002600F019F840CF0437FF
:100B200000BD400B00004300056D2F6D6F6400B5E4
:100B300047F8046DF61700F032F840CF043700BDD7
:100B4000920B000044000675642F6D6F640030B492
:100B5000002300227968B86835003C6840264000D0
:100B6000494152415B41AB4202D804D3A24202D375
:100B7000121BAB410130013EF1D10E0038607B60A9
:100B8000BA6030BC704730B400237A68B96800207E
:100B9000E2E7080C0000440005642F6D6F6400B5A7
:100BA000F01719D0FFF756FEFFF733FDF0170CD002
:100BB000FFF750FEFFF72DFDFFF7C9FFFFF729FDF7
:100BC000FFF748FEFFF725FD00BDFFF722FDFFF709
:100BD000BEFFFFF73FFE00BDFFF71BFDF0170ED075
:100BE000FFF738FEFFF715FDFFF7B1FFFFF732FE05
:100BF000FFF70FFDFFF72EFEFFF70BFD00BDFFF720
:100C000008FDFFF7A4FF00BD1E0C000044000264B5
:100C10002F0000B5FFF7C3FFFFF71EFD00BD660CF8
:100C20000000440002662A0000B5F0170DD0FFF75F
:100C300011FEFFF7EEFCF0170DD0FFF70BFEFFF7EC
:100C4000D8FE40CF01CF386000BDFFF7E2FCF017BF
:100C5000F5D0FFF7FFFDFFF7CCFE40CF01CF3860A6
:100C6000FFF7F8FD00BDB20C0000440002662F0043
:100C700000B5F0170ED0FFF7EDFDFFF7CAFCF01737
:100C80000ED0FFF7E7FDFFF7C4FCFFF77CFFFFF78F
:100C9000E3FC00BDFFF7BDFCF017F4D0FFF7DAFD71
:100CA000FFF7B7FCFFF76FFFFFF7D4FDFFF7D4FCAA
:100CB00000BDFA0C000020020232210006CF316094
:100CC000726040CF704700B5FFF7EFFB01684268E4
:100CD00006B400F006FEFFF7C6FA06BC016028293C
:100CE00006D047F8046D46F2400600F0FEFD00BD58
:100CF0000432426000F0F5FD00BD440D000020020A
:100D000002324000043F706838603668704700B5B2
:100D100000F0DCF8016828290AD047F8046D46F68F
:100D2000400600F0BFFD00F006F900F0B7FD00BD81
:100D300041680431416000F0B1FD00F0FCF800F0C2
:100D4000ADFD00BD640D000044000364753C07CF99
:100D50008E4204D801D1904201D800267047002667
:100D6000F6437047840D000044000364753E07CFCE
:100D7000B14204D801D1824201D800267047002632
:100D8000F6437047A40D0000440002643C0007CF06
:100D90008E4204DC01D1904201DC0026704700261F
:100DA000F6437047C40D0000440002643E0007CFC4
:100DB000B14204DC01D1824201DC002670470026EA
:100DC000F6437047E00D000062020364303C0437D4
:100DD000F617704700B500F0C1F800F03DFB00BD0C
:100DE000080E000062020364303D01CF0643013E5D
:100DF000B641704700B547F8046D44F2003600F084
:100E0000A1FA00F005FB00BD2E0E000044020364B1
:100E10003C3E07CF50404E400643013EB641F643AC
:100E2000704700B500F015F800F005FB00BD780E26
:100E30000000440202643D0007CF50404E4006438C
:100E4000013EB641704700B500F003F800F0E0FA4B
:100E500000BD00B5FFF739FB00F0C2F800F0C4F99F
:100E600000F0DAF800F0C0F900F0B1F900BD0000C0
:100E70000000A0FB000080FB8A0E0000200003732E
:100E8000704047F8046D3E0070479A0E0000200045
:100E900003737021370040CF7047AC0E0000200074
:100EA0000372704047F8046D6E467047BC0E000038
:100EB000200003727021B54640CF7047E00E00005D
:100EC00061020364757047F8046D704706B5FFF75B
:100ED000D5FA01684268FFF7C6F90160426006BDB5
:100EE0000C0F000061020464726F700040CF704705
:100EF00000B501681E2906D147F8046D43F2047657
:100F000002F0A0FA00BDFFF7B8F900BD220F000003
:100F10006100043F64757000002E01D047F8046D35
:100F200070474E0F000062020473776170003968E9
:100F30003E600E0070470CB5FFF7AAFA026883689E
:100F4000036082604268C3684360C2600CBD7C0F6E
:100F500000006202036E69700437704700B5FFF746
:100F60008DFA81681E2902D0FFF78DF900BD47F880
:100F7000046D43F2047602F065FA00BDA40F000090
:100F80006202046F7665720047F8046D7E687047F0
:100F900000B5FFF77DFA8168C268FFF764F9016068
:100FA000426000BDCA0F00006202047475636B00EA
:100FB00001CF083F7E603860704700B5FFF768FAE0
:100FC000FFF784FF00F028F800BD00100000630266
:100FD00003726F7403CF083F78603E600E00704765
:100FE0000EB5FFF762FA01688268036981600261E9
:100FF00003604168C2684369C160426143600EBDDD
:10100000241000006302042D726F740003CF083FA8
:101010007E6039600600704700B5FFF7E1FFFFF71B
:10102000DFFF00BD361000002000047069636B0014
:1010300057F8266070474E10000000000564657088
:1010400074684F49C91B47F8046D8E0870476A10D1
:1010500000000000067264657074680047F8046D53
:101060006E464849891B8E087047A0100000200278
:10107000023E720040B440CF704700B5FFF791FACE
:10108000FFF7FCF9FFF736FA47F8046D4BF200461C
:1010900001228A40164302F0D5F9FFF7EEF800BDB1
:1010A000D6100000200202723E0047F8046D40BCDA
:1010B000704700B5FFF775FAFFF7D5F8FFF7AAF903
:1010C000036047F8046D4BF6004601229A40164330
:1010D00002F0B8F900BDF4100000200202724000D6
:1010E00047F8046D009E704700B5FFF75AFA02F00A
:1010F000BCFE00BD181100002002057264726F7002
:1011000001B0704700B5FFF74CFA47F8046D4BF299
:10111000010602F097F900BD2C11000020000572B5
:101120007069636BB6006E443668704758110000F2
:10113000000004726F6C6C00002E01D140CF70472C
:10114000B0003958C019031F1A6802600438013E04
:10115000F9D104370E007047881100000000052DFA
:10116000726F6C6C002E01D140CF704738683946E1
:101170004A680A600431013EFAD1086040CF7047E6
:101180008C0300208C040020A21100006202036185
:101190006E6401CF0640704747F8046D44F20006C4
:1011A000D0E0BE11000062020362696301CFB04368
:1011B0000600704747F8046D44F28036BEE0D8114F
:1011C00000006202026F720001CF0643704747F8C9
:1011D000046D44F20036B5E0F211000062020378BB
:1011E0006F7201CF4640704747F8046D44F24006E5
:1011F000A8E00A1200006202012A01CF46437047AC
:1012000047F8046D44F240369CE03E120000610253
:1012100003636C7AB6FA86F6704700B5FFF72EF9CD
:1012200047F8046D6F4EFFF765F90E4356EA014625
:10123000FFF7AEF956EA032602F033F900BD4E126D
:101240000000610003726F725FEA760670476012F9
:101250000000610003726F6CB61956F1000670470A
:10126000981200006202076172736869667401CFA8
:1012700030410600704700B547F8046D44F200168F
:1012800047F8046D41F20006FFF702F941681F2993
:101290002AD91F21416027E0C212000062020672B3
:1012A00073686966740001CFF0400600704700B5AE
:1012B00047F8046D44F2C00647F8046D40F6000696
:1012C00012E0001400006202066C73686966740024
:1012D00001CFB0400600704700B547F8046D44F2F6
:1012E000800647F8046D0026FFF7D2F80168282928
:1012F00003D040CF00F022F800BD04374168FEF76C
:10130000BCFF002901D140CF00BD1F290AD88901A7
:101310000E430268D2001643FFF73AF91E4302F06B
:1013200091F800BD40CFFFF733F947F8046D42F262
:1013300000061B021E4302F085F800BD0FB5FFF743
:10134000A7F80CE00FB5FFF7A3F80168062901D153
:10135000FFF7F1FD8268282A01D1FFF7ECFDFFF7C6
:10136000D3F8016828291CD147F8046D466801F0BC
:101370004FFC02CF002E40CF13D0B6F5804F01D1E5
:10138000194E1CE0194A964201D1194E17E0B6F5E4
:10139000864F01D1174E12E0174A964201D1174EDF
:1013A0000DE0FFF7C5F8FFF7A5F8C90082680E4306
:1013B000164302F047F8FEF760FF0FBD0FB50E436E
:1013C000816856EA0146FEF758FFFEF756FFFEF722
:1013D0004AFFFFF71FF8036056EA032602F061F8A0
:1013E0000FBD000080F0B0FA000010F04040000097
:1013F000000090F0000050F080430000000030F04A
:1014000024140000610202303D00013EB6417047E5
:1014100000B500F0FDF800F02EFFFEF72EFF794931
:10142000816200BD4A140000610203303C3E013E6F
:10143000B641F643704700B500F0EAF800F01BFF34
:10144000FEF71BFF7049816200BD7014000061024D
:1014500002303C00F617704700B500F0D9F847F8A5
:10146000046D41F2C07600F049FF6849816200BD19
:1014700086140000600004747275650047F8046DFE
:101480000026F64370479A14000060000566616C00
:10149000736547F8046D00267047C01400004202CF
:1014A000023E3D0001CFB042EADA0026704747F81D
:1014B000046D4DF6003647F8046D4DF60026B3E096
:1014C000E61400004202023C3D0001CFB042D7DDED
:1014D0000026704747F8046D4DF6004647F8046D46
:1014E0004DF60056A0E00A1500004202013C01CF73
:1014F000B042C5DB0026704747F8046D4DF6002664
:1015000047F8046D4DF600368EE02E1500004202BD
:10151000013E01CFB042B3DC0026704747F8046DAE
:101520004DF6005647F8046D4DF600467CE0541524
:101530000000620203753E3D01CF861BB641F643B3
:10154000704747F8046D4DF2003647F8046D4DF2D0
:10155000002669E07A150000620203753C3D01CF68
:10156000361AB641F643704747F8046D4DF600064B
:1015700047F8046D4DF6001656E09E150000620215
:1015800002753C0001CF861BB641704747F8046DD9
:101590004DF2002647F8046D4DF2003644E0C215C6
:1015A0000000620202753E0001CF361AB641704754
:1015B00047F8046D4DF6001647F8046D4DF6000629
:1015C00032E0E41500006202023C3E0001CF811BC4
:1015D000361A0E43704747F8046D4DF2000647F87F
:1015E000046D21E04C1700006202013D01CF361A64
:1015F000013EB641704747F8046D4DF2001647F8BA
:10160000046D11E000D2000000D3000000D50000FE
:1016100000B5FEF733FFFEF767FEFEF76AFEFEF742
:101620006DFEFEF771FF00BD00B5FEF731FFFEF75E
:101630005BFEFEF75EFEFEF771FF8268282A04D18A
:10164000FFF779FC39683E600E4640CF01682829D3
:101650001DD14168FF2907D847F8046D42F60006FE
:101660000E43816809021AE047F8046D466801F0EC
:10167000CFFA02CF002E40CF09D047F8046D694E53
:101680000E43816856EA014601F00BFF0AE0FEF7BF
:1016900031FF47F8046D44F28026C90016430E431B
:1016A00001F0D0FEFEF7E9FDFEF7E7FD866240CFD0
:1016B00000BD0FB55C48816A002933D047F8046D3E
:1016C000866A00218162310AD52901D140CF0FBD40
:1016D000FEF7C9FDFEF79EFE0360D22903D1534EEB
:1016E00000F00CFE0FBDD32905D1504E00F006FED0
:1016F00000F017FE0FBD023601F0A4FE47F8046D9E
:1017000042F2000600F00FF800F00BFE47F8046DFF
:101710004EF2000601F096FE47F8046D42F2000614
:1017200000F001F80FBD00B5FEF7A8FEFEF717FFA9
:10173000016809020E4301F085FE00BD00B5816A13
:10174000090AD52901D1FEF798FD00BD6A170000EE
:101750006202036D696E01CFB04200DC0600704783
:1017600047F8046D4DF600362DE088170000620240
:10177000036D617801CFB04200DB0600704747F887
:10178000046D4DF600461EE0A817000062020475C5
:101790006D61780001CFB04200D30600704747F872
:1017A000046D4DF600060EE030180000620204756C
:1017B0006D696E0001CFB04200D80600704747F84F
:1017C000046D4DF2003600B5FEF762FE01688268D6
:1017D000914203D140CFFEF756FD00BD062A01D14C
:1017E000FFF7A9FB0168282901D1FFF7A4FBFEF749
:1017F000B6FEFEF789FEC900026847F8046D44F2A0
:1018000080260E43164301F01DFE01F01BFE47F833
:10181000046D44F200660E43164301F013FEFEF71A
:1018200032FD00BD000FB0F1280000208041000013
:101830006E1800000000046D6F76650007B531007A
:1018400040CF320040CF00290FD0B2420DD006D396
:10185000013E013A705C50540139FBD105E030780B
:101860001070013601320139F9D140CF07BD90180F
:10187000000000000466696C6C00300040CF31004D
:1018800040CF002902D001397054FCD140CF7047BD
:10189000D2180000200201403668704747F8046DF6
:1018A00046F6000600B5FEF7E9FD0368282B08D1CF
:1018B00043687C21194009010E437C218B43FEF7CC
:1018C00066FDDB001E43FEF763FE1E4301F0BAFD1A
:1018D00000BD2A1900002002012103CF30600E0054
:1018E000704747F8046D46F2000600B5FEF7D0FDDC
:1018F0000368282B09D143687C21194009010E4354
:101900007C218B43FEF743FD0360DB001E438368AD
:10191000282B02D1C368FEF72EFD1E4301F092FD75
:10192000FEF7ABFCFEF7A9FC00BD60190000200229
:10193000022B210003CF3268121832600E0070476C
:1019400000B5FEF7A5FDFFF7C1FAFFF7A7FFFFF708
:1019500047FB00F022FCFFF7EEFAFFF7C2FF00BDE5
:10196000A41900002002026840003688704700B5C4
:10197000FEF784FD47F8046D48F600060368282B3F
:1019800008D143683E21194049010E433E218B4353
:10199000FEF7FDFCDB001E43FEF7FAFD1E4301F0DF
:1019A00051FD00BDFE19000020020268210003CF96
:1019B00030800E00704700B5FEF76AFD47F8046DF1
:1019C00048F200060368282B09D143683E211940DC
:1019D00049010E433E218B43FEF7D9FC0360DB0037
:1019E0001E438368282B02D1C368FEF7C4FC1E4344
:1019F00001F028FDFEF741FCFEF73FFC00BD341A64
:101A00000000200203682B2103CF32881218328095
:101A10000E00704700B5FEF73BFDFFF757FAFFF7E2
:101A2000A6FFFFF7DDFA00F0B8FBFFF784FAFFF737
:101A3000C2FF00BD781A0000200202634000367821
:101A4000704700B5FEF71AFD47F8046D47F600062B
:101A50000368282B08D143681F21194089010E43D0
:101A60001F218B43FEF793FCDB001E43FEF790FD26
:101A70001E4301F0E7FC00BDD21A00002002026301
:101A8000210003CF30700E00704700B5FEF700FD57
:101A900047F8046D47F200060368282B09D1436814
:101AA0001F21194089010E431F218B43FEF76FFC54
:101AB0000360DB001E438368282B02D1C368FEF756
:101AC0005AFC1E4301F0BEFCFEF7D7FBFEF7D5FB28
:101AD00000BD081B0000200203632B2103CF3278D6
:101AE000121832700E00704700B5FEF7D1FCFFF7F8
:101AF000EDF9FFF7A6FFFFF773FA00F04EFBFFF7D3
:101B00001AFAFFF7C2FF00BD481B00002002046262
:101B10006973210003CF3268024332600E007047C0
:101B200000B5FEF7B5FCFFF7D1F9FFF7B7FEFFF7F9
:101B300057FA47F8046D44F20036FFF703FCFFF74D
:101B4000FAF9FFF7CEFE00BD881B000020020462F8
:101B50006963210003CF3268824332600E00704710
:101B600000B5FEF795FCFFF7B1F9FFF797FEFFF719
:101B700037FA47F8046D44F28036FFF7DFFBFFF7D2
:101B8000DAF9FFF7AEFE00BDC81B000020020478A2
:101B90006F72210003CF3268424032600E007047FE
:101BA00000B5FEF775FCFFF791F9FFF777FEFFF739
:101BB00017FA47F8046D44F24006FFF7C3FBFFF73E
:101BC000BAF9FFF78EFE00BDFE1B00002002046282
:101BD0006974400001CF3668064018BF4FF0FF36E9
:101BE000704700B5FEF754FCFFF758FE47F8046D48
:101BF00044F20006FFF7A6FBFFF71DFC00BD3E1CEC
:101C00000000200205686269732103CF3288024315
:101C100032800E00704700B5FEF73AFCFFF756F928
:101C2000FFF7A5FEFFF7DCF947F8046D44F2003634
:101C3000FFF788FBFFF77FF9FFF7BDFE00BD7E1CB5
:101C40000000200205686269632103CF3288824365
:101C500032800E00704700B5FEF71AFCFFF736F928
:101C6000FFF785FEFFF7BCF947F8046D44F28036B4
:101C7000FFF764FBFFF75FF9FFF79DFE00BDBE1C99
:101C8000000020020568786F722103CF328842403D
:101C900032800E00704700B5FEF7FAFBFFF716F929
:101CA000FFF765FEFFF79CF947F8046D44F2400624
:101CB000FFF748FBFFF73FF9FFF77DFE00BDF41C7F
:101CC0000000200205686269744001CF3688064032
:101CD00018BF4FF0FF36704700B5FEF7D9FBFFF78E
:101CE00046FE47F8046D44F20006FFF72BFBFFF7B2
:101CF000A2FB00BD341D0000200205636269732150
:101D000003CF3278024332700E00704700B5FEF701
:101D1000BFFBFFF7DBF8FFF794FEFFF761F947F829
:101D2000046D44F20036FFF70DFBFFF704F9FFF7EF
:101D3000ACFE00BD741D00002002056362696321D2
:101D400003CF3278824332700E00704700B5FEF741
:101D50009FFBFFF7BBF8FFF774FEFFF741F947F869
:101D6000046D44F28036FFF7E9FAFFF7E4F8FFF775
:101D70008CFE00BDB41D000020020563786F722147
:101D800003CF3278424032700E00704700B5FEF744
:101D90007FFBFFF79BF8FFF754FEFFF721F947F8A9
:101DA000046D44F24006FFF7CDFAFFF7C4F8FFF7E1
:101DB0006CFE00BD121E00002002056362697440C3
:101DC00001CF3678064018BF4FF0FF36704700B598
:101DD000FEF75EFBFFF735FE47F8046D44F20006A0
:101DE000FFF7B0FAFFF727FB00BD00F0CCFD1E4661
:101DF0006C6173682063616E6E6F7420626520771A
:101E000072697474656E2074776963650A0002F004
:101E100086BDDC1E00000000083136666C61736808
:101E200021003FB50F20304015D000F0ACFD22312D
:101E300036666C61736821206E6565647320313687
:101E40002D616C69676E656420616464726573738B
:101E50000A0002F064BD30680130C6D170680130FC
:101E6000C3D1B0680130C0D1F0680130BDD1114A92
:101E7000B618114A114B1360114B1360114A01231C
:101E8000136008CF04CF02CF01CF01C602C600F015
:101E90001DF804C608C600F019F80A4A1088012186
:101EA00088431080074A106807490843106040CFF4
:101EB0003FBD0000000000080820024023016745E4
:101EC000AB89EFCD142002400000008003B41F490D
:101ED000088801210840FAD103BC70477C1F00002C
:101EE00000000E666C61736870616765657261738E
:101EF00065000FB5300040CF154B984225D3154AE9
:101F0000154B1360154B1360154A0223136008210B
:101F1000C840144A104002210843114A1080012091
:101F2000114A1080094A138801201840FBD10F4A3A
:101F3000802313700E4A116802B40E488143116069
:101F40000D480143116002BC11600FBD1220024018
:101F5000005000000820024023016745AB89EFCD07
:101F600014200240F80F0000162002401720024003
:101F7000002002400006000000180000F81F0000CA
:101F800000000A6572617365666C617368002148C0
:101F900072B62149214A038893421CD047F8046D48
:101FA000060047F8046D00F0EEFC104572617365A1
:101FB00020626C6F636B20617420200000F056FD7E
:101FC00000F0E1FC0C2066726F6D20466C61736856
:101FD0000A00FFF78EFF02308842DCD100F0D3FC0C
:101FE0001246696E69736865642E20526573657464
:101FF00020210A0002F02FFD2020000000000E65C5
:1020000072617365666C61736866726F6D00300033
:1020100040CFBDE70050000000001000FFFF0000AF
:1020200040200000000009696E6974666C61736885
:10203000534854490022027001300139FBD17047E6
:102040002621000000000768666C6173682130B5C6
:10205000320040CF500813D300F095FC1E68666C28
:1020600061736821206E65656473206576656E20F6
:102070006164647265737365732E0A0002F04FBC6D
:10208000414B9A4210D200F07EFC1943616E6E6F94
:102090007420777269746520696E746F20636F7243
:1020A0006520210A02F03BBC130935482021046851
:1020B00024099C4226D014300139F8D1304820211F
:1020C0000468002C17D014300139F9D100F05BFC02
:1020D00021546F6F206D616E792073636174746534
:1020E00072656420466C61736820777269746573E9
:1020F0002E0A02F014BC1B010360013941608160AB
:10210000C16001610F2111400431465240CF016886
:10211000013101600F221140082903D100F01AF8A3
:10212000FFF77FFE30BD8C21000000000A666C7551
:102130007368666C6173680000B5114820210268FD
:10214000002A03D000F006F8FFF76BFE14300139C7
:10215000F5D100BD47F8046D466847F8046D866800
:1021600047F8046DC66847F8046D066947F8046DC2
:102170000F26F643026816400022026070470000F6
:102180008C0400208002000000500000C2210000EA
:102190006202012B01CF3618704700B5FEF778F9BF
:1021A00047F8046D43F2000647F8046DC84E47F83F
:1021B000046D41F600068168282917D1FEF7BBFEA1
:1021C00014E0682200006202012D01CF861B7047D7
:1021D00000B5FEF75DF947F8046D43F6000647F8D1
:1021E000046DBC4E47F8046D41F60026FEF78CF9ED
:1021F0000168282927D14168FF290CD840CF40CF5A
:10220000FEF796F90E43816809020E4301F01AF9B0
:10221000FEF733F800BD47F8046D0E0000F0F8FC3F
:1022200002CF002E40CF0ED040CF04370E4381683E
:1022300056EA0146FEF721F8FEF7AAF956EA032608
:1022400001F02FF900BD04370437FEF753F9890177
:102250008268D2000E431643FEF70FF8FEF798F996
:102260001E4301F0EFF800BD802200006102023140
:102270002D00013E704747F8046D41F640663DE091
:1022800098220000610202312B000136704747F8A6
:10229000046D41F6404631E0B02200006102023296
:1022A0002D00023E704747F8046D41F6806625E038
:1022B000C8220000610202322B000236704747F844
:1022C000046D41F6804619E0E222000061020563D8
:1022D000656C6C2B0436704747F8046D41F6005668
:1022E0000CE0142300006102066E656761746500EE
:1022F0007642704747F8046D44F2402600B5FEF779
:10230000BDF80168C9000E43FEF742F91E4301F013
:1023100099F800BD2C2300006102036E6F74F64330
:10232000704747F8046D44F2C036E7E744230000E5
:102330006102037368727608704747F8046D40F6CF
:102340004006DBE75423000061020373686C7600EB
:10235000704706E06A230000610202322A0076001C
:10236000704747F8046D4026C8E7822300006102E9
:102370000563656C6C73B600704747F8046D802682
:10238000BCE79A230000610202322F0076107047EA
:1023900047F8046D41F24006B0E7D6230000610221
:1023A00003616273F01736184640704700B5FEF7B8
:1023B00065F847F8046D42F60006016809020E430D
:1023C00001F040F847F8046D4DF2005601F03AF87C
:1023D000FFF790FF00BDF4230000420005752F6D4C
:1023E0006F6401CF3100B0FBF6F67143401A043F31
:1023F00038607047122400004200042F6D6F6400A3
:1024000001CF310090FBF6F67143401A043F38606B
:102410007047262400004200036D6F6400B5FFF78B
:10242000EFFF40CF00BD662400006202012F01CF04
:1024300090FBF6F6704700B5FEF72AF8FEF75AF85B
:10244000FEF762F847F8046D234E01680E43816879
:1024500056EA0146FDF711FFFEF79AF856EA032601
:1024600001F01FF800BD7A24000061000465766564
:102470006E00012030403618704792240000810021
:1024800004626173650047F8046D144E70470A00DA
:102490000000A824000000000662696E61727900E5
:1024A0000E48022101607047BE240000000007644E
:1024B0006563696D616C09480A21016070471425E4
:1024C000000000000368657804481021016070472F
:1024D000000010F10000B0F1F0F090FBFC7F012053
:1024E00073497448086074497448086074497548B1
:1024F000086075497548086075492320086075496A
:102500007548086075497648086070477048754995
:102510000160704730250000810009686F6F6B2DE6
:10252000656D697447F8046D6F4E70471A26000098
:102530004C250000810008686F6F6B2D6B6579007A
:1025400047F8046D694E7047402600006A25000078
:1025500081000A686F6F6B2D656D69743F0047F8E5
:10256000046D634E70476A260000862500008100D6
:1025700009686F6F6B2D6B65793F47F8046D5D4E91
:10258000704796260000A425000081000A686F6F3E
:102590006B2D70617573650047F8046D564E70477A
:1025A000064A0000BA250000000004656D69740049
:1025B0000FB54D4800F026F80FBDCE2500000000F5
:1025C000036B65790FB5494800F01CF80FBDE02595
:1025D0000000000005656D69743F45480068874646
:1025E000F22500000000046B65793F004148006857
:1025F00087460826000000000570617573653E4837
:1026000000688746006887462E26000000000B738E
:10261000657269616C2D656D697400B500F025F80F
:10262000002E40CFFAD0354A167040CF00BD562656
:10263000000000000A73657269616C2D6B6579009A
:1026400000B500F028F8002E40CFFAD047F8046D0E
:102650002B4A167800BD8426000000000C736572BA
:1026600069616C2D656D69743F0000B5FFF7C7FFA8
:1026700047F8046D0026234801688020014000D0FF
:10268000F64300BD0827000000000B736572696106
:102690006C2D6B65793F00B5FFF7B1FF47F8046D0E
:1026A0000026184801682020014000D0F64300BDF4
:1026B0004C100240FF0000005810024000000200D1
:1026C000000C0048FFEBFFFF200C004800007007E3
:1026D0000C4400400844004000100000004400404A
:1026E0000D000000A1010000F87F0120F47F01200F
:1026F000F07F0120EC7F0120E87F0120284400408A
:10270000244400401C4400402C27000000000763C4
:1027100065787065637400B5386801B4013038605D
:1027200000F00BF801BC067040CF00BDA2270000EE
:102730000000066163636570740000B502CF013963
:102740000022FFF73FFF300040CF7F2809D020282C
:1027500019D2092816D00A281FD00D281DD0082804
:10276000EFD1002AEDD000F00EF903082008002A6E
:10277000E7D0885C013A80230340E2D04023034045
:10278000F5D0DEE72020B242DBD247F8046D060028
:10279000FFF70EFF01328854D3E7160000F0A2F8CD
:1027A00000BDB427000040000374696247F8046D5F
:1027B000294E7047CA2700008100033E696E47F822
:1027C000046D264E704700000000F02700008200D4
:1027D0000E63757272656E742D736F75726365002A
:1027E00047F8046D1E4E704700000000C400002032
:1027F0000C280000000009736574736F75726365BF
:10280000174802CF0660416040CF70472A28000079
:10281000000006736F757263650047F8046D104E13
:10282000043F706838603668704764280000000014
:102830000571756572790FB5084800210160FFF7D1
:10284000B5FF47F8046D47F8046DC826FFF775FF1C
:10285000FFF7D6FF0FBD0000C4000020E47F012079
:10286000DC7F0120B2280000000007636F6D7061FB
:1028700072650FB5310040CF01CF884202D040CF02
:1028800000260FBD02CF002810D001380A5C335C4F
:10289000412A02D35B2A38BF2032412B02D35B2B63
:1028A00038BF20339A42EED000260FBD0026F643F3
:1028B0000FBDC628000000000263720000B500F0E2
:1028C00062F8010A00BDD8280000000002626C0016
:1028D00047F8046D20267047EC28000000000573BF
:1028E0007061636547F8046D202661E60C290000DD
:1028F0000000067370616365730000B5002E03DD90
:10290000FFF7F0FF013EFBD140CF00BD1C290000C6
:102910005000065B636861725D0005E034290000C9
:10292000000004636861720000B501F087FC40CFCD
:10293000367800BD442900005004012847F8046D92
:10294000292606E05E2900005004015C47F8046D6A
:10295000002600B501F07CFC043740CF00BDA22961
:1029600000001000022E22009B4800B547F8046DBD
:10297000060000F05EFA47F8046D222601F068FCBC
:1029800000F09FFD00BD0AB447F8046D7646013E95
:1029900033780121013319405B181EEB030E0ABC8A
:1029A00039E0C82900001000026322008B48DCE7F0
:1029B00047F8046D7646013E337801210133194012
:1029C0005B181EEB030E7047F22900001000027323
:1029D00022008348C9E747F8046D764647F8046D3E
:1029E000013E36780121731C19405B181EEB030E63
:1029F00070470A2A0000000005636F756E74013687
:102A000047F8046D013E36787047322A0000000016
:102A100005637479706501B53078002807D00136F8
:102A200047F8046D3678FFF7C3FD0138F7D140CF82
:102A300001BD602A00000000047479706500310057
:102A400040CF300040CF00B5002908D0002247F821
:102A5000046D865CFFF7ACFD01329142F7D100BDF9
:102A60009A2A00000000046865782E0007B531003E
:102A700040CF20200F22043847F8046D0E00C640D6
:102A80001640092E01D9373600E03036FFF790FDA9
:102A90000028F0D1FFF726FF07BDAA2A000000009A
:102AA00003682E731FB54F4C0EE0BA2A00000000D9
:102AB00003752E731FB54C4C06E0382B0000000048
:102AC000022E73001FB5494C4949C91B8908494A60
:102AD000106803B40A201060FFF755FF08537461B3
:102AE000636B3A205B0047F8046D0E0001F07FFD38
:102AF000FFF749FF025D200003BC3E4A1060002939
:102B00000AD03D4A106806B447F8046D0600A04795
:102B100006BC043A0139F5D1FFF735FF0620544FC2
:102B2000533A200047F8046D3600A047FFF72BFF0B
:102B300004202A3E0A001FBDFC2B00000000057780
:102B40006F72647300B5FFF71EFF010A00F001FF0A
:102B5000FFF719FF09416464726573733A2047F8FF
:102B6000046DFFF783FFFFF70EFF064C696E6B3AAB
:102B7000200047F8046D3668FFF778FFFFF703FF82
:102B800007466C6167733A2047F8046DB688FFF713
:102B90006DFFFFF7F8FE06436F64653A2000B01D35
:102BA00000F010FF47F8046D0600FFF75FFFFFF726
:102BB000EAFE064E616D653A200047F8046D063660
:102BC000FFF729FFFFF7DFFE010A00F0D9FE300012
:102BD00040CFBDD040CF00BD86290000B029000005
:102BE000D62900006D2A0000DF450000EF450000F7
:102BF0008C030020FC7F012088030020602D000052
:102C000000000D3132626974656E636F64696E67CE
:102C10000FB5FF2E04D847F8046D5FF0FF360FBDE7
:102C200016F0FF10B0420ED14FF6FF710840310C84
:102C3000814208D116F0FF0656F4805647F8046D1D
:102C40005FF0FF360FBD16F0FF20B0420FD14FF6F8
:102C5000FF710840310C814209D1360A16F0FF0697
:102C600056F4005647F8046D5FF0FF360FBDFF22A3
:102C700031001140300A1040884210D1300C104011
:102C800088420CD1300E1040884208D116F0FF0661
:102C900056F4405647F8046D5FF0FF360FBD300024
:102CA00000210131001850F100007FF07F02024046
:102CB000802A05D01F29F4D347F8046D00260FBDE4
:102CC0000829F9D3060036F0800611F00100C00192
:102CD000064311F00E00C002064311F010008005FB
:102CE000064347F8046D5FF0FF360FBD47F8046DEB
:102CF000DFF898665FF4704110EA01021201164392
:102D00005FF4006110EA0102D20316435FF4E06150
:102D100010EA010212011643FF2110EA01021643D4
:102D20001E43BEE347F8046DDFF864665FF0704150
:102D300010EA0102120B16435FF0006110EA010273
:102D4000520816435FF0E06110EA0102120B1643CD
:102D50005FF47F0110EA0102120C16431E43A0E348
:102D6000C62D000000001072656769737465726C8F
:102D700069746572616C2C000FB5330040CF1B0283
:102D8000FF2E05D856F400561E4300F05BFB0FBD26
:102D9000FFF73EFF002E40CF06D0DFF8F8050643D0
:102DA0001E4300F07EFB0FBDF643FFF731FF002E00
:102DB00040CF06D0DFF8E00506431E4300F071FB6C
:102DC0000FBDF6430BE0262E00000000096D6F7664
:102DD000776D6F76742C0FB5330040CF1B02300037
:102DE00040CFFFF783FF4FF6FF7110EA014001D09B
:102DF000FFF798FF0FBD0FB50136300040CF00231D
:102E0000FFF774FFFFF78EFF06E00FB5013647F8B6
:102E1000046D0026FFF7B0FF47F8046D44F280769A
:102E200000F010FB0FBD8C2E000000000563616CEC
:102E30006C2C0FB5330000F068FE300040CF1B1A39
:102E4000043BDFF858151940002906D0DFF850255B
:102E5000914202D0BDE80F40D7E740CF5B08DFF8D2
:102E6000440540F2FF7119400843DB0A40F2FF318C
:102E70001940090408439B0A13F00101890608431D
:102E800047F8046D060000F00CFB0FBDC22E0000D9
:102E90000000086C69746572616C2C0008B547F815
:102EA000046D4FF6470600F0CDFA47F8046D46F67C
:102EB000045600F0C7FA47F8046D0626FFF75CFFDA
:102EC00008BDE62E000000000663726561746500AF
:102ED00000B500F03DF842F60370804747F8046DF6
:102EE000BEF1010600BD422F0000200005646F65A1
:102EF000733E42F60370804747F8046DBEF1010649
:102F0000704747F8046DBEF10106DFF89C24136892
:102F1000DFF898140968DFF89004834205D20F2087
:102F20000840062805D00231F9E70220084000D009
:102F3000023102311160FFF75EFF136000F0D8F933
:102F400000BDAC2F00000000073C6275696C647323
:102F500000B500F083FBDFF850040168DFF8482477
:102F600091420CD200F0D1FD0F200640062E40CF3A
:102F700010D047F8046D362600F064FAF2E700F04E
:102F8000C4FD0220064040CF04D047F8046D362629
:102F900000F058FA47F8046D4BF2005600F052FA70
:102FA00047F8046D0A2600F0BFFA00BDB82F0000F4
:102FB0005000035B275D03E0D02F000000000127D5
:102FC00000B501F03BF900F03BFD300040CF00BD03
:102FD00006300000300008706F7374706F6E65000B
:102FE00000B5FFF7EDFF47F8046D060039683E6055
:102FF0000E46FFF753FFFFF751FF47F8046DEC4E05
:10300000FFF717FF00BD5C300000000007696E6C21
:10301000696E652C00B54BF200514BF6005244F23C
:1030200070733088884208D0904208D0984206D009
:1030300047F8046D060000F005FA0236F1E740CFCC
:1030400000BD0EB44BF6005244F27073018802309A
:10305000914201D09942F9D10EBC70477230000004
:103060000000047265742C0047F8046D4BF600569E
:10307000E8E1803000003000046578697400F3E70F
:10308000983000003000077265637572736547F809
:10309000046DC64E3668CCE6B03000008100057382
:1030A0007461746547F8046DC24E704700000000FB
:1030B000C23000000000015DBE480021C94301602C
:1030C0007047D23000001000015BBA480021016057
:1030D0007047F23000000000013A00B5B6480760C2
:1030E00000F0BCFAB34801210160B448002101603E
:1030F00000BD643100003008013B00B5AE480168F6
:10310000B9420ED0FFF73FFC1520537461636B206A
:103110006E6F742062616C616E6365642E0A01F0EB
:10312000FEBBA4480068411C10D00B2805D847F806
:10313000046D40F6200600F00EF947F8046D44F2E5
:10314000707600F07FF901F0F0FA05E047F8046DC1
:103150004BF6005600F076F900F0CAF895480021C9
:10316000016000BD78310000000007657865637577
:103170007465300040CF8746903100001000096927
:103180006D6D65646961746547F8046D1026E2E051
:10319000A6310000500006696E6C696E650047F844
:1031A000046D2026D7E0C031000010000B636F6D66
:1031B00070696C656F6E6C7947F8046D3026CAE0F3
:1031C000DA31000050000A302D666F6C6461626C69
:1031D000650047F8046D4026BDE0F4310000500062
:1031E0000A312D666F6C6461626C650047F8046D8E
:1031F0004126B0E00E32000050000A322D666F6C9E
:103200006461626C650047F8046D4226A3E02832D1
:10321000000050000A332D666F6C6461626C6500BB
:1032200047F8046D432696E04232000050000A340D
:103230002D666F6C6461626C650047F8046D44260E
:1032400089E05C32000050000A352D666F6C6461C5
:10325000626C650047F8046D45267CE0763200001C
:1032600050000A362D666F6C6461626C650047F829
:10327000046D46266FE09032000050000A372D663C
:103280006F6C6461626C650047F8046D472662E00C
:10329000C0320000000008636F6E7374616E7400CA
:1032A00000B500F0DBF9FFF7F9FD47F8046D44F2D3
:1032B000707600F0C7F8FFF78CFF00F019F800BD3A
:1032C000E232000000000932636F6E7374616E7445
:1032D00000B500F0C3F939683E600E46FFF7DEFD29
:1032E000E1E746330000000006736D756467650012
:1032F00000B52D4801682C4A91421ED202390A8835
:103300002F4B9A4204D147F8046D2E4E00F09AF8E4
:1033100000F072F800F084F82B48006847F8046D5C
:1033200006002A49096804311F4A1368116000F039
:1033300089F81360FEF700FF00BD00F05DF847F864
:10334000046D002608E0D0330000000008736574A7
:10335000666C6167730000B513480168124A9142B8
:1033600005D2194801683143016040CF00BD3200E9
:1033700040CF1648006804300188114B994201D1B2
:10338000110000E01143018000BD0000000040F288
:103390000000C0F200005FF000007FF00100C0FFFD
:1033A0000000C0FF00F800F0000000201400002022
:1033B0002E460000D87F0120100000205C00002075
:1033C000FFFF00000000000020000020040000209B
:1033D000EC330000410007616C69676E6564012091
:1033E0003040361802203040361870471034000044
:1033F000000005616C69676E00B58D4801680220A8
:10340000014004D047F8046D002600F01BF800BD11
:103410003A340000000008616C69676E31362C0098
:1034200000B5834801680F20014005D047F8046DBE
:10343000002600F007F8F4E700BD7E34000000002D
:1034400002682C000FB5B6B27A480168002902D094
:10345000013100D0016076480168754A914205D279
:1034600047F8046D0E00FEF7F2FD02E0320040CF97
:103470000A8047F8046D022600F056F80FBD983414
:1034800000000000012C00B547F8046DFFF7DAFFDB
:10349000360CFFF7D7FF00BDB43400000000033E38
:1034A0003C2C00B547F8046D360CFFF7CBFFFFF757
:1034B000C9FF00BD1C350000000007737472696EFF
:1034C000672C07B5FF21314040CF300040CF0029A5
:1034D00005D147F8046D0026FFF7B4FF07BD47F894
:1034E000046D067836020E43FFF7ACFF0130013958
:1034F00002290AD347F8046D46783602027816434B
:10350000FFF7A0FF02300239F2E7002900D107BD22
:1035100047F8046D0678FFF795FF07BD7635000084
:10352000000005616C6C6F7441480168404A91422B
:103530000FD2320040CF89183F4A914219D3FFF78A
:1035400022FA0B466C6173682066756C6C0A01F098
:10355000E6B9320040CF8918384A1268914208D340
:10356000FFF711FA0952616D2066756C6C0A01F063
:10357000D6B9016070479E35000000000D636F6D85
:1035800070696C65746F72616D3F47F8046D002659
:10359000274800682649884248D3F6437047BE351D
:1035A000000000000C636F6D70696C65746F726170
:1035B0006D001F4800681E49884211D370474C3681
:1035C000000000000E636F6D70696C65746F666C4F
:1035D00061736800164800681549884200D2704738
:1035E0001748184902680B680A60036010481649BA
:1035F00002680B680A60036010480068834215D3B4
:1036000000B5FFF7C0F923205661726961626C65ED
:103610007320636F6C6C69646520776974682064DB
:10362000696374696F6E6172790A00BD704700004A
:1036300000000020D87F012000001000240000209E
:10364000040000201C000020180000204837000063
:1036500000000828637265617465290000B500F0F8
:10366000EDFD002E0ED1FFF78EF915204372656136
:103670007465206E65656473206E616D6520210A36
:1036800001F04DB9386847F8046D043F386000F028
:10369000A8F940CF002E40CF11D0386847F8046D0C
:1036A000043F3860FFF76FF9095265646566696E1B
:1036B0006520FFF7C4F9FFF766F9022E0A00FFF74D
:1036C0009BFE944800689349884225D29248002185
:1036D0000160FFF7A5FE47F8046D0C26FFF724FFF5
:1036E00000F013FA47F8046D0626FFF71DFFFDF7FB
:1036F0008DFCFFF7E6FE894801680A68884B9A420C
:1037000007D1844A1368116047F8046DFFF7BBFEC8
:103710001360066040CF12E000F0F7F97F4847F8E9
:10372000046D0668FFF7AFFE47F8046D7D4EFFF7A6
:1037300089FE7A48310040CF0160FFF7C2FE75482C
:1037400001687948016000BD60370000000008761C
:1037500061726961626C650047F8046D012613E0CF
:1037600078370000000009327661726961626C6529
:1037700047F8046D022607E0523800000000096E89
:103780007661726961626C6500B5FFF767FF614839
:103790000168604A914234D20F200640B20063486B
:1037A0000168891A624A91420BD2FFF7ECF80F4E7A
:1037B0006F7420656E6F7567682052414D0A01F085
:1037C000AEB8016047F8046D0E00FFF767FB47F8DD
:1037D000046D44F27076FFF735FE300040CF0200F2
:1037E000002805D00E600431FFF74DFE0138F9D1F5
:1037F00047F8046D80261643FFF7ADFDFFF778FD0F
:1038000000BD00F082F90220064040CF04D147F805
:10381000046D3626FFF716FE47F8046D454EFFF798
:1038200040FE47F8046D444EFFF73BFE47F8046D39
:1038300044F27076FFF706FE300040CF002803D038
:10384000FFF721FE0138FBD1FFF7C3FCFFF750FD66
:1038500000BD3C3900000000076275666665723A7B
:1038600000B5FFF7FBFE0120304036180220304043
:10387000361828480168274A914228D22B48016807
:10388000891B2B4A91420BD2FFF77DF80F4E6F74C4
:1038900020656E6F7567682052414D0A01F03FB890
:1038A000016047F8046D0E00FFF7F8FA47F8046D61
:1038B00044F27076FFF7C6FDFFF7E5FD47F8046DAB
:1038C00040F24016FFF747FDFFF712FD00BD00F084
:1038D0001CF90220064040CF04D147F8046D36267B
:1038E000FFF7B0FD47F8046D124EFFF7DAFD47F819
:1038F000046D114EFFF7D5FD47F8046D44F2707664
:10390000FFF7A0FDFFF710FEFFF763FCFFF7F0FCE9
:1039100000BD000000000020200000200400002066
:10392000FFFFFFFFFFFF0000140000202400002025
:10393000300700203E60043F02367E466A390000B0
:1039400000000F64696374696F6E617279737461EA
:10395000727441480068404947F8046D884201D2BA
:103960003E4E70473E4E36687047A4390000000056
:103970000E64696374696F6E6172796E6578740044
:1039800003B531683748814207D08879FF2804D0D1
:103990000E0047F8046D002603BD47F8046D0026AD
:1039A000F64303BDD639000000000A736B697073DB
:1039B0007472696E67003178013101220A408918FA
:1039C0007618704706B40178013101220A4089183F
:1039D000401806BC70476C3A000000000466696E2F
:1039E00064003FB500220023350040CF340040CFB3
:1039F000FFF7AFFF1C48B188884217D047F8046D25
:103A00000636FEF7FCFF47F8046D260047F8046D04
:103A10002E00FEF72EFF002E40CF07D0B01DFFF77F
:103A2000D1FF02000B000C48824204D2FFF7A8FF2E
:103A3000300040CFDED0160047F8046D1E003FBDB9
:103A400000B531003868FFF7CCFF3A68002A01D191
:103A500000F019FF00BD00000000002088010000F8
:103A600004000020FFFFFFFFFFFF0000C63A000038
:103A7000000006636A756D702C00320040CF310083
:103A800040CF8B1B043BE749194000290DD0E64885
:103A900081420AD0FEF777FF0D4A756D7020746F72
:103AA0006F206661720A00F03ABF5B10FF210B4085
:103AB000134330001E0000B5DC4A13681060FFF7A6
:103AC000C1FC136000BDFE3A00000000056A756D80
:103AD000702C310040CF300040CF0B1A043BD4494A
:103AE0001940002902D0D34A9142D3D15B10D24A67
:103AF000134053F4604347F8046D1E00DBE7143BAA
:103B00000000000004686572650047F8046DC74E48
:103B1000366870474A3C000000000D666C617368AF
:103B20007661722D6865726547F8046DC34E36681C
:103B3000704700B547F8046D42F60066FFF782FC57
:103B400047F8046D4CF64076FFF77CFC00BDDCE7DF
:103B500000B500F03AF839683E600E4647F8046D4B
:103B60004DF20016FFF789FF00BD00B500F02DF8FB
:103B700039683E600E4647F8046D4DF20076FFF757
:103B80007CFF00BD00B5FFF7D4FF00F01EF83968D8
:103B90003E600E4647F8046D4DF20006FFF76DFFDC
:103BA00000BD00B500F011F839683E600E46FFF721
:103BB00090FF00BD00B5FFF7BCFFFFF7A6FF47F879
:103BC000046D0226FFF7B0FC00BD00B5FFF79DFFB6
:103BD00047F8046D0226FFF7A7FC00BD00B5FFF70C
:103BE00094FFFFF776FF00BD00B5FFF78EFF47F8A3
:103BF000046D4DF20006FFF740FF00BD00B5FFF772
:103C000084FF47F8046D4DF20016FFF736FF00BD44
:103C100000B5FCF733FCFCF767FBFCF76AFBFCF72D
:103C20006DFB8168282901D1FCF76EFCFCF762FC72
:103C300047F8046D42F6000609020E43FFF702FC46
:103C4000FCF71BFBFCF744FB00BDBE3C000030064C
:103C50000269660000B5FFF7ADFF47F8046D4DF24D
:103C6000000647F8046D022600BD00B5FCF799FC7C
:103C7000FDF764FD816A002910D002B4FCF728FB2F
:103C8000FFF743FF47F8046D0226FFF74DFC47F8A6
:103C9000046D40BC47F8046D022600BDFFF7B8FF75
:103CA000FFF733FF47F8046D0226FFF73DFC47F8A6
:103CB000046D4DF2000647F8046D022600BDF03C8D
:103CC0000000300004656C73650000B5022E25D13C
:103CD00040CFFFF77AFFFDF799F9FFF716FF396834
:103CE0003E600E46FFF7C9FE47F8046D052600BD8D
:103CF0003C3D00003000047468656E00052E01D163
:103D000040CF6BE7022E09D140CF00B5FFF7FDFE93
:103D100039683E600E46FFF7B0FE00BDFEF733FE89
:103D2000175374727563747572657320646F6E27B0
:103D300074206D617463680A00F0F1BD6A3D000093
:103D400030000672657065617400042EE6D140CFC4
:103D500000B5FDF73FF9FFF724FFFFF7D6FE3968FE
:103D60003E600E46FFF789FE00BD963D000030061E
:103D7000057768696C65012ED0D140CF00B5FFF79B
:103D800069FF023600BD012EC8D140CF00B5FFF754
:103D90006CFF023600BDF63D0000300605756E74FE
:103DA000696C012EBAD140CFECE67047012EB5D137
:103DB00040CF00B5FDF7C2FC816A00290DD002B4E6
:103DC000FCF786FAFFF701FF39683E600E4647F8B8
:103DD000046D40BCFFF751FE00BDFFF719FFFFF770
:103DE000F4FE39683E600E4647F8046D4DF2000659
:103DF000FFF743FE00BD0A3E000030000561676129
:103E0000696E012E8AD140CFCBE6403E00003000E3
:103E100005626567696E00B5FFF799FE47F8046DA6
:103E2000012600BD01FFFFFF00FFFFFF0000002093
:103E300001F8FFFF00F8FFFFFF070000240000204B
:103E40005A3E00002002016B47F8046D029E704745
:103E500047F8046D49F602060BE0883E0000200298
:103E6000016A47F8046D009E704747F8046D49F6F3
:103E7000000600B5FCF7F7F9FCF7CCFA03601B026B
:103E80001E43FFF7DFFA00BDB43E000020020169C7
:103E900047F8046D2600704700B547F8046D40F2FE
:103EA0002006FCF7E0F9FCF7B5FA03601E43FFF7C4
:103EB000C9FA00BDF23E00003000056C6561766510
:103EC00000B5754801683B00043F1A68043B1A605E
:103ED00008338B42F9D103B4FFF777FE03BC3300FC
:103EE00040CF04390B60016004390A6801320A606E
:103EF00000BD043F0000200006756E6C6F6F7000FF
:103F000030BC70473C3F00003000052B6C6F6F7079
:103F1000032E00D002E740CF00B547F8046D5F4E96
:103F2000FFF778F8FFF721FE1AE014F10044641B54
:103F3000A41940CF2C44A4F1004470477E3F0000F8
:103F40003000046C6F6F7000032E00D0E6E640CFA7
:103F500000B547F8046D524EFFF75CF8FFF7F8FD27
:103F600000F052F94C48310040CF016047F8046D31
:103F70004C4EFFF74FF800BD0134AC427047C63FCE
:103F80000000300202646F0000B547F8046D464E31
:103F9000FFF740F84048016847F8046D0E0047F805
:103FA000046D00260760FFF7D2FD47F8046D032675
:103FB00000BD00B500F02FF8ECE730B4340040CF7E
:103FC000350040CF7047AC4000003002033F646FC3
:103FD00000B547F8046D344EFFF71CF847F8046D40
:103FE00044F2AC26FFF72EFA2B48016847F8046D1F
:103FF0000E00FFF7EAFD013647F8046D012626485A
:104000000760FFF7A4FD47F8046D032600BD00B567
:1040100000F001F8E2E700B5FCF7C3FAFCF738FA64
:10402000FCF762F9FCF765F9FCF768F947F8046DED
:104030004BF23046FFF706FA0168282908D047F806
:10404000046D40F20406C9000E43FFF7FBF907E0D8
:1040500047F8046D466847F8046D0426FEF78CFEA9
:104060008168282908D047F8046D40F20506C90088
:104070000E43FFF7E7F907E047F8046DC66847F815
:10408000046D0526FEF778FEFCF7F7F8FCF7F5F867
:10409000FCF73EF900BD00000C0000202A3F0000A4
:1040A000783F0000003F0000BA3F0000CC40000015
:1040B000300004636173650000B5FCF772FA47F8DD
:1040C000046D002647F8046D082600BDE24000009C
:1040D0003000033F6F66714809E0013EB64140CFB2
:1040E0007047A84100003002026F66006C48082E3D
:1040F00000D013E640CF00B547F8046D0600FEF788
:1041000089FFFFF762FD39683E600E46013647F8C9
:10411000046D092647F8046D4CF64076FFF792F9D6
:1041200000BD082E00D0F9E540CF00B5FCF7B0F98E
:10413000FCF7DAF8FCF7DDF8FCF7E0F847F8046D77
:1041400044F28026FCF7E0F90E430268282A1ED1CB
:104150004268FF2A08D840CF47F8046D42F60006AF
:10416000164309020E4314E047F8046D4668FEF753
:104170004FFD04CF002E40CF06D04A4E164356EADC
:104180000146FFF78EF906E0FCF7B4F90A00D20009
:104190001643FFF757F9FCF770F8FCF7B9F8B0E7EA
:1041A000300040CFB0427047DE410000300005656E
:1041B0006E646F66092E00D0B0E540CF00B540B404
:1041C00040CFFFF702FD39683E600E46FFF716FD4F
:1041D00047F8046D40BC47F8046D082600BD304226
:1041E0000000300007656E6463617365082E00D0BF
:1041F00094E540CF00B547F8046D4CF64076FFF7E4
:1042000021F900F001F800BD00B5300040CF0028D2
:104210000DD003B401213140002903D0013EFFF746
:10422000E3FC01E0FFF7DAFC03BC0138EFE700BD77
:1042300044420000000005746F6B656E47F8046D22
:10424000202605E0AC420000000005706172736535
:1042500010B5FEF7E2FA310040CF300040CF124AED
:1042600012688418202E07D191420FD0835CB3428C
:1042700002D101328418F7E7914207D0835C013202
:10428000B342F9D18618361B013E01E08618361B71
:10429000043F3C600448026010BD0000DA400000AA
:1042A000A0410000000FB0F1E47F0120EA420000CD
:1042B0000000056469676974CF4B1B68303E0BD3FF
:1042C0000A2E0BD3073E0A2E06D3242E06D3203EF9
:1042D0000A2E01D3242E01D3002670479E42FBD222
:1042E00047F8046D0026F6437047F44300000000D1
:1042F000066E756D626572003FB5310040CF701E6D
:104300000126012204B4BC4B1B68002400250029AF
:104310003CD00130013902782D2A04D101B00022AD
:10432000D24304B4F3E7232A01D10A23EFE7242A76
:1043300001D11023EBE7252A01D10223E7E72E2A3A
:1043400001D10226E3E72C2A36D047F8046D160087
:10435000FFF7B4FF002E40CF2BD047F8046D2600A6
:1043600047F8046D2E0047F8046D1E0047F8046DF1
:1043700000260FB4FCF71DFB0FBC350040CF340006
:1043800040CF0022A419554140CFC0E704BC002A09
:1043900004D50022E443ED430134554133002600A7
:1043A000012B02D047F8046D2E0047F8046D1E0063
:1043B0003FBD01B000263FBD250000240226002994
:1043C000E4D0425C01392E2AF9D047F8046D16007A
:1043D000FFF774FF002E40CFEBD0043F3C6047F85E
:1043E000046D1E000FB4FCF793FB0FBC340040CFEC
:1043F00040CFE4E7164400000000062E64696769B8
:1044000074000A2E01D230367047242E01D237367E
:104410007047232670474C440000000004686F6C0E
:104420006400330040CF754801783F290DD2013137
:1044300001704018012907D001380278013002705C
:10444000013801390129F7D1037070476C4400002D
:10445000000005686F6C643C330040CF674801780A
:104460003F2902D201310170435470478444000057
:104470000000047369676E00002E01D440CF7047BE
:104480002D26CEE798440000000002233E005B4842
:104490000678013038607047B044000000000366C1
:1044A000235310B5202400F008F8013CFBD110BDC7
:1044B000D244000000000266230000B547F8046DF6
:1044C0004D4E3668FCF737FAFFF79BFFFFF7C4FF46
:1044D00000BDEE44000000000223530000B500F0D0
:1044E0000AF8002EFBD138680028F8D100BD1A4523
:1044F00000000000012300B547F8046D3E4E366809
:1045000047F8046D0026FCF722FBFCF782F840CF49
:10451000FFF777FFFFF785FF00BD2C450000000087
:10452000023C230035480021017070473E450000E1
:10453000000002662E0047F8046D202604E08C453A
:104540000000000003662E6E00B510B4340040CFAA
:10455000FCF72EFDFCF774F947F8046D0026FFF711
:10456000E1FFFFF7BBFF40CF2C26FFF775FF002CC4
:1045700003D0FFF7A2FF013CFBD110BC40CFFFF7F7
:104580007BFF47F8046D47F8046D1CE0A24500006E
:1045900000000375642E00B5FFF7C4FFFFF79EFF10
:1045A00011E0D4450000000002642E0000B5FCF7C5
:1045B000FFFCFCF745F9FFF7B5FFFFF78FFFFCF7AE
:1045C00009FDFFF759FFFFF762FFFEF738FAFEF724
:1045D00089F900BDE6450000000002752E0047F88D
:1045E000046D0026D7E7B24700000000012E47F80F
:1045F000046DF617DAE70000FC7F0120840000203C
:1046000030B5D84C2568002D01D13D00256030BD66
:1046100030B5D44C3D00256030BD30B5D14C0025BF
:10462000256030BDCF4B1B68DB1B9B08704700B576
:10463000310040CFCC48084002D000F0A2F800BDC5
:10464000CA48084001D1FDF734F8320040CFFFF7E7
:10465000D7FFC748084003D047F8046D160000BDD7
:10466000FFF7E0FF8020084006D14020084009D035
:104670000F200840834205D347F8046D1600FEF76B
:1046800078FD00BDBB48084014D0FBF790FD47F80B
:10469000046D160047F8046D0E0000F030F81000AD
:1046A000FEF7CFFC421CB4489047FFF7B1FFFBF781
:1046B0008DFD00BDFBF77BFD47F8046D160047F844
:1046C000046D0E0000F01BF8FBF702FEFFF7A5FFDC
:1046D000AA48084001D1FBF764FF47F8046D1600B3
:1046E00010220A4002D0FEF744FD00BD20220A40FD
:1046F00002D0FEF78FFC00BDFEF79BFB00BD0FB59F
:10470000320040CF330040CF9D480168062907D2D0
:10471000062041439B48401803801B0C4380828045
:1047200097480168013101600FBD0FB594480168D9
:1047300006291FD8934801391DD047F8046D0E0093
:10474000FEF780FE47F8046D0688FEF77BFE47F80B
:10475000046D4688FEF776FE47F8046D8688FEF7FE
:1047600071FE06300139EDD147F8046D41F20006C3
:10477000FEF7F1FD0FBD47F8046D4026FEF7EBFD97
:104780000FBD00B5300040CFFEF75BFC0188023062
:1047900047F8046D068842881204164347F8046DF2
:1047A000868803B4FFF743FF03BC06300139EFD11D
:1047B00000BDFA4700000000086576616C75617401
:1047C000650000B5FEF729F801CF01B440B440CF31
:1047D0006D48016802B400210160FEF711F800F095
:1047E00014F8694802BC016047F8046D40BC01BC84
:1047F000043F3860FEF704F800BDF64800000000F2
:1048000009696E7465727072657400B55F4887429D
:104810000BD9FEF7B8F810537461636B20756E64A2
:104820006572666C6F770A0079E0594887420AD250
:10483000FEF7A9F80F537461636B206F766572669B
:104840006C6F770A6BE0FFF7DBFEFFF7F7FC002EDB
:1048500002D1043740CF00BD386847F8046D043FEB
:104860003860FFF7BEF8310040CF320040CF002A59
:1048700015D138683100FCF71CFFFFF73DFD320011
:1048800040CF002AC2D1FEF7DEF8FEF77CF80C20FC
:104890006E6F7420666F756E642E0A003FE03D4BAC
:1048A0001B68002B1CD1FFF7B8FE30230B40302BC8
:1048B0000ED1FEF7C4F8FEF766F812206973206384
:1048C0006F6D70696C652D6F6E6C792E0A0026E035
:1048D000043740CF47F8046D1600FEF74AFC95E711
:1048E000043740CF47F8046D160047F8046D0E00FA
:1048F000FFF79DFE8AE712490000810009686F6F8B
:104900006B2D7175697447F8046D234E70474E49DD
:104910000000AC4900000000047175697400DFF804
:104920007CD01A4FFDF784FB1D480A21016019480D
:10493000002101600B480160FBF711FD1248016086
:104940001848016018494160134800688746FDF720
:1049500072FFFFF75AFFFEF716F805206F6B2E0A5D
:10496000F5E700000800002000100000000400002F
:1049700000200000000200002800002000080000C5
:104980005C00002060000020E47F01208C030020F8
:104990008C010020D87F0120D47F01208C040020CE
:1049A000FC7F0120DC7F0120C4000020C6490000FC
:1049B00000000565696E743F47F8046DEFF31086DB
:1049C000013EB6417047D649000020000465696E7B
:1049D000740062B67047E649000020000464696E06
:1049E000740072B67047FC490000200004697073BF
:1049F000720047F8046DEFF305867047084A00001F
:104A00000000036E6F7070474A4A0000000009758D
:104A10006E68616E646C656400B5FDF7B4FF145593
:104A20006E68616E646C656420496E74657272753F
:104A30007074200047F8046DEFF30586FEF716F852
:104A4000FDF7A1FF02210A0000BD5C4A0000000042
:104A5000057265736574924892490160864A000048
:104A600081000B6972712D7379737469636B47F8F8
:104A7000046D8D4E7047184A000047F6D070C2F2A0
:104A8000010000688746AE4A000081000969727122
:104A90002D6661756C7447F8046D844E7047184A32
:104AA000000047F6CC70C2F2010000688746DC4A7D
:104AB000000081000E6972712D636F6C6C65637408
:104AC000696F6E0047F8046D794E7047184A000010
:104AD00047F6C870C2F2010000688746044B000028
:104AE0008100096972712D657874693047F8046D29
:104AF000704E7047184A000047F6C470C2F20100B9
:104B0000006887462C4B00008100096972712D6591
:104B10007874693147F8046D674E7047184A000091
:104B200047F6C070C2F2010000688746544B00008F
:104B30008100096972712D657874693247F8046DD6
:104B40005E4E7047184A000047F6BC70C2F2010082
:104B5000006887467C4B00008100096972712D65F1
:104B60007874693347F8046D554E7047184A000051
:104B700047F6B870C2F2010000688746A44B0000F7
:104B80008100096972712D657874693447F8046D84
:104B90004C4E7047184A000047F6B470C2F201004C
:104BA00000688746CA4B00008100076972712D6159
:104BB000646347F8046D444E7047184A000047F696
:104BC000B070C2F2010000688746F24B000081001D
:104BD000086972712D74696D320047F8046D3B4E9F
:104BE0007047184A000047F6AC70C2F20100006836
:104BF00087461A4C00008100086972712D74696D36
:104C0000330047F8046D324E7047184A000047F6EB
:104C1000A870C2F2010000688746424C0000810083
:104C2000086972712D74696D340047F8046D294E5E
:104C30007047184A000047F6A470C2F201000068ED
:104C400087460C500000FFFF182D2D2D20466C616B
:104C500073682044696374696F6E617279202D2DC9
:104C60002D001D48016821F4C06141F4007101600C
:104C70001A48016811F48061FBD11948016821F0DC
:104C8000070141F4817101601648016821F0F001CB
:104C900041F0B001016041F008010160704700007F
:104CA0000CED00E00400FA05D07F0120CC7F01204C
:104CB000C87F0120C47F0120C07F0120BC7F01206C
:104CC000B87F0120B47F0120B07F0120AC7F01209C
:104CD000A87F0120A47F01200070004014700040D4
:104CE0000020024000100240FFF7BBFFFDF7F8FB79
:104CF000FDF70CFC41488546414F2A264148424970
:104D0000016042484249016047F8046D404E414D00
:104D1000B188414B994224D0404B0B400AD0B01D82
:104D2000FEF750FEFEF78DF9038840880004034328
:104D3000ED1A16E080230B4013D00F231940890091
:104D40006D1AB01DFEF73EFEFEF77BF947F8046DC5
:104D5000060047F8046D2E0047F8046D0E00FCF7BE
:104D60006DFDFEF70DFE300040CFD1D02C4806601F
:104D700040CF2C4805602C482C49274A884204D053
:104D8000023803889342F9D0023029490860FDF7C0
:104D90004FF9FDF7F8FD3B4D6563726973702D5354
:104DA00074656C6C6172697320524120322E322E10
:104DB0003120666F722053544D33324C34373620D5
:104DC0006279204D61747468696173204B6F636808
:104DD000200A18480021016047F8046D164E47F874
:104DE000046D0426FEF7FDFD40CF002E02D0FEF735
:104DF000C0F9A9E540CF92E5696E69748C04002082
:104E00008C03002000000020300700200400002058
:104E10008801000000800120FFFF00000001000069
:104E20001C000020240000200000100000500000A2
:0C4E30001800002008000020F84D0000D1
:0400000508000000EF
:00000001FF
